{
  "_format": "hh-sol-artifact-1",
  "contractName": "TrekkiNFT",
  "sourceName": "contracts/TrekkiNFT.sol",
  "abi": [
    {
      "inputs": [],
      "stateMutability": "nonpayable",
      "type": "constructor"
    },
    {
      "anonymous": false,
      "inputs": [
        {
          "indexed": true,
          "internalType": "address",
          "name": "owner",
          "type": "address"
        },
        {
          "indexed": true,
          "internalType": "address",
          "name": "approved",
          "type": "address"
        },
        {
          "indexed": true,
          "internalType": "uint256",
          "name": "tokenId",
          "type": "uint256"
        }
      ],
      "name": "Approval",
      "type": "event"
    },
    {
      "anonymous": false,
      "inputs": [
        {
          "indexed": true,
          "internalType": "address",
          "name": "owner",
          "type": "address"
        },
        {
          "indexed": true,
          "internalType": "address",
          "name": "operator",
          "type": "address"
        },
        {
          "indexed": false,
          "internalType": "bool",
          "name": "approved",
          "type": "bool"
        }
      ],
      "name": "ApprovalForAll",
      "type": "event"
    },
    {
      "anonymous": false,
      "inputs": [
        {
          "indexed": true,
          "internalType": "address",
          "name": "previousOwner",
          "type": "address"
        },
        {
          "indexed": true,
          "internalType": "address",
          "name": "newOwner",
          "type": "address"
        }
      ],
      "name": "OwnershipTransferred",
      "type": "event"
    },
    {
      "anonymous": false,
      "inputs": [
        {
          "indexed": true,
          "internalType": "address",
          "name": "from",
          "type": "address"
        },
        {
          "indexed": true,
          "internalType": "address",
          "name": "to",
          "type": "address"
        },
        {
          "indexed": true,
          "internalType": "uint256",
          "name": "tokenId",
          "type": "uint256"
        }
      ],
      "name": "Transfer",
      "type": "event"
    },
    {
      "stateMutability": "payable",
      "type": "fallback"
    },
    {
      "inputs": [],
      "name": "MAX_SUPPLY",
      "outputs": [
        {
          "internalType": "uint256",
          "name": "",
          "type": "uint256"
        }
      ],
      "stateMutability": "view",
      "type": "function"
    },
    {
      "inputs": [
        {
          "internalType": "address",
          "name": "to",
          "type": "address"
        },
        {
          "internalType": "bytes32[]",
          "name": "merkleProof",
          "type": "bytes32[]"
        }
      ],
      "name": "airDrop",
      "outputs": [],
      "stateMutability": "nonpayable",
      "type": "function"
    },
    {
      "inputs": [],
      "name": "airdropRootHash",
      "outputs": [
        {
          "internalType": "bytes32",
          "name": "",
          "type": "bytes32"
        }
      ],
      "stateMutability": "view",
      "type": "function"
    },
    {
      "inputs": [
        {
          "internalType": "address",
          "name": "to",
          "type": "address"
        },
        {
          "internalType": "uint256",
          "name": "tokenId",
          "type": "uint256"
        }
      ],
      "name": "approve",
      "outputs": [],
      "stateMutability": "nonpayable",
      "type": "function"
    },
    {
      "inputs": [
        {
          "internalType": "address",
          "name": "owner",
          "type": "address"
        }
      ],
      "name": "balanceOf",
      "outputs": [
        {
          "internalType": "uint256",
          "name": "",
          "type": "uint256"
        }
      ],
      "stateMutability": "view",
      "type": "function"
    },
    {
      "inputs": [],
      "name": "baseExtension",
      "outputs": [
        {
          "internalType": "string",
          "name": "",
          "type": "string"
        }
      ],
      "stateMutability": "view",
      "type": "function"
    },
    {
      "inputs": [],
      "name": "baseURI",
      "outputs": [
        {
          "internalType": "string",
          "name": "",
          "type": "string"
        }
      ],
      "stateMutability": "view",
      "type": "function"
    },
    {
      "inputs": [],
      "name": "batchNumber",
      "outputs": [
        {
          "internalType": "uint64",
          "name": "",
          "type": "uint64"
        }
      ],
      "stateMutability": "view",
      "type": "function"
    },
    {
      "inputs": [
        {
          "internalType": "address",
          "name": "",
          "type": "address"
        }
      ],
      "name": "blockedMarketplaces",
      "outputs": [
        {
          "internalType": "bool",
          "name": "",
          "type": "bool"
        }
      ],
      "stateMutability": "view",
      "type": "function"
    },
    {
      "inputs": [],
      "name": "flipMintActive",
      "outputs": [],
      "stateMutability": "nonpayable",
      "type": "function"
    },
    {
      "inputs": [
        {
          "internalType": "bytes32[]",
          "name": "merkleProof",
          "type": "bytes32[]"
        }
      ],
      "name": "freeMint",
      "outputs": [],
      "stateMutability": "payable",
      "type": "function"
    },
    {
      "inputs": [],
      "name": "freeMintRootHash",
      "outputs": [
        {
          "internalType": "bytes32",
          "name": "",
          "type": "bytes32"
        }
      ],
      "stateMutability": "view",
      "type": "function"
    },
    {
      "inputs": [
        {
          "internalType": "uint256",
          "name": "tokenId",
          "type": "uint256"
        }
      ],
      "name": "getApproved",
      "outputs": [
        {
          "internalType": "address",
          "name": "",
          "type": "address"
        }
      ],
      "stateMutability": "view",
      "type": "function"
    },
    {
      "inputs": [
        {
          "internalType": "address",
          "name": "owner",
          "type": "address"
        },
        {
          "internalType": "address",
          "name": "operator",
          "type": "address"
        }
      ],
      "name": "isApprovedForAll",
      "outputs": [
        {
          "internalType": "bool",
          "name": "",
          "type": "bool"
        }
      ],
      "stateMutability": "view",
      "type": "function"
    },
    {
      "inputs": [
        {
          "internalType": "address",
          "name": "user",
          "type": "address"
        },
        {
          "internalType": "bytes32[]",
          "name": "merkleProof",
          "type": "bytes32[]"
        }
      ],
      "name": "isValidUserForAirDrop",
      "outputs": [
        {
          "internalType": "bool",
          "name": "",
          "type": "bool"
        }
      ],
      "stateMutability": "view",
      "type": "function"
    },
    {
      "inputs": [
        {
          "internalType": "address",
          "name": "user",
          "type": "address"
        },
        {
          "internalType": "bytes32[]",
          "name": "merkleProof",
          "type": "bytes32[]"
        }
      ],
      "name": "isValidUserForFreeMint",
      "outputs": [
        {
          "internalType": "bool",
          "name": "",
          "type": "bool"
        }
      ],
      "stateMutability": "view",
      "type": "function"
    },
    {
      "inputs": [
        {
          "internalType": "address",
          "name": "user",
          "type": "address"
        },
        {
          "internalType": "bytes32[]",
          "name": "merkleProof",
          "type": "bytes32[]"
        }
      ],
      "name": "isValidUserForPresaleMint",
      "outputs": [
        {
          "internalType": "bool",
          "name": "",
          "type": "bool"
        }
      ],
      "stateMutability": "view",
      "type": "function"
    },
    {
      "inputs": [
        {
          "internalType": "uint256",
          "name": "",
          "type": "uint256"
        }
      ],
      "name": "lotteryCount",
      "outputs": [
        {
          "internalType": "uint64",
          "name": "",
          "type": "uint64"
        }
      ],
      "stateMutability": "view",
      "type": "function"
    },
    {
      "inputs": [],
      "name": "maxBalance",
      "outputs": [
        {
          "internalType": "uint256",
          "name": "",
          "type": "uint256"
        }
      ],
      "stateMutability": "view",
      "type": "function"
    },
    {
      "inputs": [],
      "name": "maxMint",
      "outputs": [
        {
          "internalType": "uint256",
          "name": "",
          "type": "uint256"
        }
      ],
      "stateMutability": "view",
      "type": "function"
    },
    {
      "inputs": [],
      "name": "mintIsActive",
      "outputs": [
        {
          "internalType": "bool",
          "name": "",
          "type": "bool"
        }
      ],
      "stateMutability": "view",
      "type": "function"
    },
    {
      "inputs": [],
      "name": "mintPrice",
      "outputs": [
        {
          "internalType": "uint256",
          "name": "",
          "type": "uint256"
        }
      ],
      "stateMutability": "view",
      "type": "function"
    },
    {
      "inputs": [],
      "name": "name",
      "outputs": [
        {
          "internalType": "string",
          "name": "",
          "type": "string"
        }
      ],
      "stateMutability": "view",
      "type": "function"
    },
    {
      "inputs": [],
      "name": "owner",
      "outputs": [
        {
          "internalType": "address",
          "name": "",
          "type": "address"
        }
      ],
      "stateMutability": "view",
      "type": "function"
    },
    {
      "inputs": [
        {
          "internalType": "uint256",
          "name": "tokenId",
          "type": "uint256"
        }
      ],
      "name": "ownerOf",
      "outputs": [
        {
          "internalType": "address",
          "name": "",
          "type": "address"
        }
      ],
      "stateMutability": "view",
      "type": "function"
    },
    {
      "inputs": [
        {
          "internalType": "uint256",
          "name": "numberOfTokens",
          "type": "uint256"
        },
        {
          "internalType": "bytes32[]",
          "name": "merkleProof",
          "type": "bytes32[]"
        }
      ],
      "name": "presaleMint",
      "outputs": [],
      "stateMutability": "payable",
      "type": "function"
    },
    {
      "inputs": [],
      "name": "presaleMintRootHash",
      "outputs": [
        {
          "internalType": "bytes32",
          "name": "",
          "type": "bytes32"
        }
      ],
      "stateMutability": "view",
      "type": "function"
    },
    {
      "inputs": [
        {
          "internalType": "uint256",
          "name": "numberOfTokens",
          "type": "uint256"
        }
      ],
      "name": "publicMint",
      "outputs": [],
      "stateMutability": "payable",
      "type": "function"
    },
    {
      "inputs": [],
      "name": "renounceOwnership",
      "outputs": [],
      "stateMutability": "nonpayable",
      "type": "function"
    },
    {
      "inputs": [],
      "name": "revealedState",
      "outputs": [
        {
          "internalType": "bool",
          "name": "",
          "type": "bool"
        }
      ],
      "stateMutability": "view",
      "type": "function"
    },
    {
      "inputs": [
        {
          "internalType": "address",
          "name": "from",
          "type": "address"
        },
        {
          "internalType": "address",
          "name": "to",
          "type": "address"
        },
        {
          "internalType": "uint256",
          "name": "tokenId",
          "type": "uint256"
        }
      ],
      "name": "safeTransferFrom",
      "outputs": [],
      "stateMutability": "nonpayable",
      "type": "function"
    },
    {
      "inputs": [
        {
          "internalType": "address",
          "name": "from",
          "type": "address"
        },
        {
          "internalType": "address",
          "name": "to",
          "type": "address"
        },
        {
          "internalType": "uint256",
          "name": "tokenId",
          "type": "uint256"
        },
        {
          "internalType": "bytes",
          "name": "data",
          "type": "bytes"
        }
      ],
      "name": "safeTransferFrom",
      "outputs": [],
      "stateMutability": "nonpayable",
      "type": "function"
    },
    {
      "inputs": [],
      "name": "saleStage",
      "outputs": [
        {
          "internalType": "uint256",
          "name": "",
          "type": "uint256"
        }
      ],
      "stateMutability": "view",
      "type": "function"
    },
    {
      "inputs": [
        {
          "internalType": "bytes32",
          "name": "_merkleRootHash",
          "type": "bytes32"
        }
      ],
      "name": "setAirDropRootHash",
      "outputs": [],
      "stateMutability": "nonpayable",
      "type": "function"
    },
    {
      "inputs": [
        {
          "internalType": "address",
          "name": "operator",
          "type": "address"
        },
        {
          "internalType": "bool",
          "name": "approved",
          "type": "bool"
        }
      ],
      "name": "setApprovalForAll",
      "outputs": [],
      "stateMutability": "nonpayable",
      "type": "function"
    },
    {
      "inputs": [
        {
          "internalType": "string",
          "name": "_newBaseExtension",
          "type": "string"
        }
      ],
      "name": "setBaseExtension",
      "outputs": [],
      "stateMutability": "nonpayable",
      "type": "function"
    },
    {
      "inputs": [
        {
          "internalType": "string",
          "name": "_newBaseURI",
          "type": "string"
        }
      ],
      "name": "setBaseURI",
      "outputs": [],
      "stateMutability": "nonpayable",
      "type": "function"
    },
    {
      "inputs": [
        {
          "internalType": "uint64",
          "name": "_batchNumber",
          "type": "uint64"
        }
      ],
      "name": "setBatchNumber",
      "outputs": [],
      "stateMutability": "nonpayable",
      "type": "function"
    },
    {
      "inputs": [
        {
          "internalType": "address",
          "name": "marketplace",
          "type": "address"
        },
        {
          "internalType": "bool",
          "name": "blocked",
          "type": "bool"
        }
      ],
      "name": "setBlockedMarketPlace",
      "outputs": [],
      "stateMutability": "nonpayable",
      "type": "function"
    },
    {
      "inputs": [
        {
          "internalType": "bytes32",
          "name": "_merkleRootHash",
          "type": "bytes32"
        }
      ],
      "name": "setFreeMintRootHash",
      "outputs": [],
      "stateMutability": "nonpayable",
      "type": "function"
    },
    {
      "inputs": [
        {
          "internalType": "uint256",
          "name": "tokenId",
          "type": "uint256"
        },
        {
          "internalType": "uint64",
          "name": "_lotteryCount",
          "type": "uint64"
        }
      ],
      "name": "setLotteryCount",
      "outputs": [],
      "stateMutability": "nonpayable",
      "type": "function"
    },
    {
      "inputs": [
        {
          "internalType": "uint256",
          "name": "_maxBalance",
          "type": "uint256"
        }
      ],
      "name": "setMaxBalance",
      "outputs": [],
      "stateMutability": "nonpayable",
      "type": "function"
    },
    {
      "inputs": [
        {
          "internalType": "uint64",
          "name": "_maxMint",
          "type": "uint64"
        }
      ],
      "name": "setMaxMint",
      "outputs": [],
      "stateMutability": "nonpayable",
      "type": "function"
    },
    {
      "inputs": [
        {
          "internalType": "bytes32",
          "name": "_merkleRootHash",
          "type": "bytes32"
        }
      ],
      "name": "setPresaleMintRootHash",
      "outputs": [],
      "stateMutability": "nonpayable",
      "type": "function"
    },
    {
      "inputs": [
        {
          "internalType": "uint64",
          "name": "_stage",
          "type": "uint64"
        }
      ],
      "name": "setSaleStage",
      "outputs": [],
      "stateMutability": "nonpayable",
      "type": "function"
    },
    {
      "inputs": [
        {
          "internalType": "uint256",
          "name": "tokenId",
          "type": "uint256"
        },
        {
          "internalType": "bool",
          "name": "_isStaking",
          "type": "bool"
        }
      ],
      "name": "setStakingStatus",
      "outputs": [],
      "stateMutability": "nonpayable",
      "type": "function"
    },
    {
      "inputs": [
        {
          "internalType": "uint256",
          "name": "",
          "type": "uint256"
        }
      ],
      "name": "stakingStatus",
      "outputs": [
        {
          "internalType": "bool",
          "name": "",
          "type": "bool"
        }
      ],
      "stateMutability": "view",
      "type": "function"
    },
    {
      "inputs": [
        {
          "internalType": "bytes4",
          "name": "interfaceId",
          "type": "bytes4"
        }
      ],
      "name": "supportsInterface",
      "outputs": [
        {
          "internalType": "bool",
          "name": "",
          "type": "bool"
        }
      ],
      "stateMutability": "view",
      "type": "function"
    },
    {
      "inputs": [],
      "name": "symbol",
      "outputs": [
        {
          "internalType": "string",
          "name": "",
          "type": "string"
        }
      ],
      "stateMutability": "view",
      "type": "function"
    },
    {
      "inputs": [
        {
          "internalType": "uint256",
          "name": "index",
          "type": "uint256"
        }
      ],
      "name": "tokenByIndex",
      "outputs": [
        {
          "internalType": "uint256",
          "name": "",
          "type": "uint256"
        }
      ],
      "stateMutability": "view",
      "type": "function"
    },
    {
      "inputs": [
        {
          "internalType": "address",
          "name": "owner",
          "type": "address"
        },
        {
          "internalType": "uint256",
          "name": "index",
          "type": "uint256"
        }
      ],
      "name": "tokenOfOwnerByIndex",
      "outputs": [
        {
          "internalType": "uint256",
          "name": "",
          "type": "uint256"
        }
      ],
      "stateMutability": "view",
      "type": "function"
    },
    {
      "inputs": [
        {
          "internalType": "uint256",
          "name": "tokenId",
          "type": "uint256"
        }
      ],
      "name": "tokenURI",
      "outputs": [
        {
          "internalType": "string",
          "name": "",
          "type": "string"
        }
      ],
      "stateMutability": "view",
      "type": "function"
    },
    {
      "inputs": [],
      "name": "totalSupply",
      "outputs": [
        {
          "internalType": "uint256",
          "name": "",
          "type": "uint256"
        }
      ],
      "stateMutability": "view",
      "type": "function"
    },
    {
      "inputs": [
        {
          "internalType": "address",
          "name": "from",
          "type": "address"
        },
        {
          "internalType": "address",
          "name": "to",
          "type": "address"
        },
        {
          "internalType": "uint256",
          "name": "tokenId",
          "type": "uint256"
        }
      ],
      "name": "transferFrom",
      "outputs": [],
      "stateMutability": "nonpayable",
      "type": "function"
    },
    {
      "inputs": [
        {
          "internalType": "address",
          "name": "newOwner",
          "type": "address"
        }
      ],
      "name": "transferOwnership",
      "outputs": [],
      "stateMutability": "nonpayable",
      "type": "function"
    },
    {
      "inputs": [
        {
          "internalType": "address",
          "name": "to",
          "type": "address"
        }
      ],
      "name": "withdrawMoney",
      "outputs": [],
      "stateMutability": "nonpayable",
      "type": "function"
    },
    {
      "stateMutability": "payable",
      "type": "receive"
    }
  ],
  "bytecode": "0x60806040527f6605f8e6f523fc8991d078dec5279f9e0681539c5b3e4d182a060272f60e7ceb60001b600b557f6605f8e6f523fc8991d078dec5279f9e0681539c5b3e4d182a060272f60e7ceb60001b600c557f6605f8e6f523fc8991d078dec5279f9e0681539c5b3e4d182a060272f60e7ceb60001b600d556000600e60006101000a81548160ff021916908315150217905550600a600f55600160105566b1a2bc2ec5000060115560006012556000601360006101000a81548167ffffffffffffffff021916908367ffffffffffffffff16021790555060405180606001604052806035815260200162005f2660359139601490805190602001906200010992919062000313565b506040518060400160405280600581526020017f2e6a736f6e000000000000000000000000000000000000000000000000000000815250601590805190602001906200015792919062000313565b506000601660006101000a81548160ff0219169083151502179055503480156200018057600080fd5b506040518060400160405280600981526020017f5472656b6b694e465400000000000000000000000000000000000000000000008152506040518060400160405280600681526020017f5472656b6b6900000000000000000000000000000000000000000000000000008152506200020d620002016200024760201b60201c565b6200024f60201b60201c565b81600190805190602001906200022592919062000313565b5080600290805190602001906200023e92919062000313565b50505062000428565b600033905090565b60008060009054906101000a900473ffffffffffffffffffffffffffffffffffffffff169050816000806101000a81548173ffffffffffffffffffffffffffffffffffffffff021916908373ffffffffffffffffffffffffffffffffffffffff1602179055508173ffffffffffffffffffffffffffffffffffffffff168173ffffffffffffffffffffffffffffffffffffffff167f8be0079c531659141344cd1fd0a4f28419497f9722a3daafe3b4186f6b6457e060405160405180910390a35050565b8280546200032190620003f2565b90600052602060002090601f01602090048101928262000345576000855562000391565b82601f106200036057805160ff191683800117855562000391565b8280016001018555821562000391579182015b828111156200039057825182559160200191906001019062000373565b5b509050620003a09190620003a4565b5090565b5b80821115620003bf576000816000905550600101620003a5565b5090565b7f4e487b7100000000000000000000000000000000000000000000000000000000600052602260045260246000fd5b600060028204905060018216806200040b57607f821691505b60208210811415620004225762000421620003c3565b5b50919050565b615aee80620004386000396000f3fe60806040526004361061036f5760003560e01c8063715018a6116101c6578063b5bfcfa8116100f7578063e3e1e8ef11610095578063ef20424a1161006f578063ef20424a14610ca7578063f185976d14610cd0578063f2fde38b14610d0d578063fc3df02914610d3657610376565b8063e3e1e8ef14610c11578063e55145be14610c2d578063e985e9c514610c6a57610376565b8063c6682862116100d1578063c668286214610b57578063c87b56dd14610b82578063da3ef23f14610bbf578063e296643414610be857610376565b8063b5bfcfa814610aec578063b88d4fde14610b03578063ba87306514610b2c57610376565b80638da5cb5b1161016457806399a8355d1161013e57806399a8355d14610a345780639c7e706314610a715780639d51d9b714610a9a578063a22cb46514610ac357610376565b80638da5cb5b146109a157806395d89b41146109cc57806397ad7139146109f757610376565b80637501f741116101a05780637501f741146108f457806379b417841461091f5780638540015c1461095c57806388d15d501461098557610376565b8063715018a61461088757806373ad468a1461089e5780637445ee14146108c957610376565b8063325a157d116102a057806355f804b31161023e5780636817c76c116102185780636817c76c146107cb5780636ad9d482146107f65780636c0360eb1461081f57806370a082311461084a57610376565b806355f804b31461073c578063633221e8146107655780636352211e1461078e57610376565b806342842e0e1161027a57806342842e0e14610680578063471a4294146106a95780634aaca86d146106d45780634f6ccce7146106ff57610376565b8063325a157d146105ff57806332cb6b0c1461062a57806337c36b141461065557610376565b806319d02fab1161030d57806323b872dd116102e757806323b872dd146105545780632db115441461057d5780632f745c59146105995780632f971029146105d657610376565b806319d02fab146104c35780631fcff8e5146104ee57806322ab974c1461051757610376565b8063095ea7b311610349578063095ea7b31461041d5780630f893da914610446578063167593f11461046f57806318160ddd1461049857610376565b806301ffc9a71461037857806306fdde03146103b5578063081812fc146103e057610376565b3661037657005b005b34801561038457600080fd5b5061039f600480360381019061039a9190613c70565b610d5f565b6040516103ac9190613cb8565b60405180910390f35b3480156103c157600080fd5b506103ca610dd9565b6040516103d79190613d6c565b60405180910390f35b3480156103ec57600080fd5b5061040760048036038101906104029190613dc4565b610e6b565b6040516104149190613e32565b60405180910390f35b34801561042957600080fd5b50610444600480360381019061043f9190613e79565b610eb1565b005b34801561045257600080fd5b5061046d60048036038101906104689190613ee5565b610f4c565b005b34801561047b57600080fd5b5061049660048036038101906104919190613f65565b610f83565b005b3480156104a457600080fd5b506104ad610f9f565b6040516104ba9190613fa1565b60405180910390f35b3480156104cf57600080fd5b506104d8610fac565b6040516104e59190613cb8565b60405180910390f35b3480156104fa57600080fd5b5061051560048036038101906105109190613f65565b610fbf565b005b34801561052357600080fd5b5061053e60048036038101906105399190613dc4565b610fdb565b60405161054b9190613fcb565b60405180910390f35b34801561056057600080fd5b5061057b60048036038101906105769190613fe6565b611002565b005b61059760048036038101906105929190613dc4565b611062565b005b3480156105a557600080fd5b506105c060048036038101906105bb9190613e79565b6112c7565b6040516105cd9190613fa1565b60405180910390f35b3480156105e257600080fd5b506105fd60048036038101906105f89190614039565b61136c565b005b34801561060b57600080fd5b506106146113be565b604051610621919061407f565b60405180910390f35b34801561063657600080fd5b5061063f6113c4565b60405161064c9190613fa1565b60405180910390f35b34801561066157600080fd5b5061066a6113ca565b604051610677919061407f565b60405180910390f35b34801561068c57600080fd5b506106a760048036038101906106a29190613fe6565b6113d0565b005b3480156106b557600080fd5b506106be6113f0565b6040516106cb9190613cb8565b60405180910390f35b3480156106e057600080fd5b506106e9611403565b6040516106f69190613fa1565b60405180910390f35b34801561070b57600080fd5b5061072660048036038101906107219190613dc4565b611409565b6040516107339190613fa1565b60405180910390f35b34801561074857600080fd5b50610763600480360381019061075e91906141cf565b61147a565b005b34801561077157600080fd5b5061078c60048036038101906107879190614218565b61149c565b005b34801561079a57600080fd5b506107b560048036038101906107b09190613dc4565b6114e2565b6040516107c29190613e32565b60405180910390f35b3480156107d757600080fd5b506107e0611569565b6040516107ed9190613fa1565b60405180910390f35b34801561080257600080fd5b5061081d600480360381019061081891906142b8565b61156f565b005b34801561082b57600080fd5b506108346116d0565b6040516108419190613d6c565b60405180910390f35b34801561085657600080fd5b50610871600480360381019061086c9190614039565b61175e565b60405161087e9190613fa1565b60405180910390f35b34801561089357600080fd5b5061089c611816565b005b3480156108aa57600080fd5b506108b361182a565b6040516108c09190613fa1565b60405180910390f35b3480156108d557600080fd5b506108de611830565b6040516108eb919061407f565b60405180910390f35b34801561090057600080fd5b50610909611836565b6040516109169190613fa1565b60405180910390f35b34801561092b57600080fd5b5061094660048036038101906109419190614039565b61183c565b6040516109539190613cb8565b60405180910390f35b34801561096857600080fd5b50610983600480360381019061097e9190614344565b61185c565b005b61099f600480360381019061099a9190614371565b61186e565b005b3480156109ad57600080fd5b506109b6611a5a565b6040516109c39190613e32565b60405180910390f35b3480156109d857600080fd5b506109e1611a83565b6040516109ee9190613d6c565b60405180910390f35b348015610a0357600080fd5b50610a1e6004803603810190610a1991906142b8565b611b15565b604051610a2b9190613cb8565b60405180910390f35b348015610a4057600080fd5b50610a5b6004803603810190610a5691906142b8565b611b99565b604051610a689190613cb8565b60405180910390f35b348015610a7d57600080fd5b50610a986004803603810190610a9391906143be565b611c1d565b005b348015610aa657600080fd5b50610ac16004803603810190610abc9190613dc4565b611c80565b005b348015610acf57600080fd5b50610aea6004803603810190610ae591906143be565b611c92565b005b348015610af857600080fd5b50610b01611d2d565b005b348015610b0f57600080fd5b50610b2a6004803603810190610b25919061449f565b611d61565b005b348015610b3857600080fd5b50610b41611dc3565b604051610b4e9190613fcb565b60405180910390f35b348015610b6357600080fd5b50610b6c611ddd565b604051610b799190613d6c565b60405180910390f35b348015610b8e57600080fd5b50610ba96004803603810190610ba49190613dc4565b611e6b565b604051610bb69190613d6c565b60405180910390f35b348015610bcb57600080fd5b50610be66004803603810190610be191906141cf565b611ef6565b005b348015610bf457600080fd5b50610c0f6004803603810190610c0a9190614344565b611f18565b005b610c2b6004803603810190610c269190614522565b611f2a565b005b348015610c3957600080fd5b50610c546004803603810190610c4f91906142b8565b61226a565b604051610c619190613cb8565b60405180910390f35b348015610c7657600080fd5b50610c916004803603810190610c8c9190614582565b6122ee565b604051610c9e9190613cb8565b60405180910390f35b348015610cb357600080fd5b50610cce6004803603810190610cc99190614344565b612382565b005b348015610cdc57600080fd5b50610cf76004803603810190610cf29190613dc4565b612394565b604051610d049190613cb8565b60405180910390f35b348015610d1957600080fd5b50610d346004803603810190610d2f9190614039565b6123b4565b005b348015610d4257600080fd5b50610d5d6004803603810190610d589190613f65565b612438565b005b60007f780e9d63000000000000000000000000000000000000000000000000000000007bffffffffffffffffffffffffffffffffffffffffffffffffffffffff1916827bffffffffffffffffffffffffffffffffffffffffffffffffffffffff19161480610dd25750610dd18261246c565b5b9050919050565b606060018054610de8906145f1565b80601f0160208091040260200160405190810160405280929190818152602001828054610e14906145f1565b8015610e615780601f10610e3657610100808354040283529160200191610e61565b820191906000526020600020905b815481529060010190602001808311610e4457829003601f168201915b5050505050905090565b6000610e768261254e565b6005600083815260200190815260200160002060009054906101000a900473ffffffffffffffffffffffffffffffffffffffff169050919050565b601760008373ffffffffffffffffffffffffffffffffffffffff1673ffffffffffffffffffffffffffffffffffffffff16815260200190815260200160002060009054906101000a900460ff1615610f3e576040517f08c379a0000000000000000000000000000000000000000000000000000000008152600401610f359061466f565b60405180910390fd5b610f488282612599565b5050565b610f546126b1565b806019600084815260200190815260200160002060006101000a81548160ff0219169083151502179055505050565b610f8b6126b1565b8067ffffffffffffffff1660128190555050565b6000600980549050905090565b601660009054906101000a900460ff1681565b610fc76126b1565b8067ffffffffffffffff1660108190555050565b60186020528060005260406000206000915054906101000a900467ffffffffffffffff1681565b61101361100d61272f565b82612737565b611052576040517f08c379a000000000000000000000000000000000000000000000000000000000815260040161104990614701565b60405180910390fd5b61105d8383836127cc565b505050565b3461107860115483612ac290919063ffffffff16565b11156110b9576040517f08c379a00000000000000000000000000000000000000000000000000000000081526004016110b09061476d565b60405180910390fd5b612710816110c5610f9f565b6110cf91906147bc565b1115611110576040517f08c379a00000000000000000000000000000000000000000000000000000000081526004016111079061485e565b60405180910390fd5b600360125414611155576040517f08c379a000000000000000000000000000000000000000000000000000000000815260040161114c906148ca565b60405180910390fd5b60011515600e60009054906101000a900460ff161515146111ab576040517f08c379a00000000000000000000000000000000000000000000000000000000081526004016111a29061495c565b60405180910390fd5b600f546111b73361175e565b826111c291906147bc565b1115611203576040517f08c379a00000000000000000000000000000000000000000000000000000000081526004016111fa906149c8565b60405180910390fd5b601054811115611248576040517f08c379a000000000000000000000000000000000000000000000000000000000815260040161123f90614a34565b60405180910390fd5b60005b818110156112c357600061125d610f9f565b90506127108110156112af576112733382612ad8565b60016018600083815260200190815260200160002060006101000a81548167ffffffffffffffff021916908367ffffffffffffffff1602179055505b5080806112bb90614a54565b91505061124b565b5050565b60006112d28361175e565b8210611313576040517f08c379a000000000000000000000000000000000000000000000000000000000815260040161130a90614b0f565b60405180910390fd5b600760008473ffffffffffffffffffffffffffffffffffffffff1673ffffffffffffffffffffffffffffffffffffffff168152602001908152602001600020600083815260200190815260200160002054905092915050565b6113746126b1565b8073ffffffffffffffffffffffffffffffffffffffff166108fc479081150290604051600060405180830381858888f193505050501580156113ba573d6000803e3d6000fd5b5050565b600d5481565b61271081565b600b5481565b6113eb83838360405180602001604052806000815250611d61565b505050565b600e60009054906101000a900460ff1681565b60125481565b6000611413610f9f565b8210611454576040517f08c379a000000000000000000000000000000000000000000000000000000000815260040161144b90614ba1565b60405180910390fd5b6009828154811061146857611467614bc1565b5b90600052602060002001549050919050565b6114826126b1565b8060149080519060200190611498929190613b61565b5050565b6114a46126b1565b806018600084815260200190815260200160002060006101000a81548167ffffffffffffffff021916908367ffffffffffffffff1602179055505050565b6000806114ee83612af6565b9050600073ffffffffffffffffffffffffffffffffffffffff168173ffffffffffffffffffffffffffffffffffffffff161415611560576040517f08c379a000000000000000000000000000000000000000000000000000000000815260040161155790614c3c565b60405180910390fd5b80915050919050565b60115481565b6115776126b1565b60011515611586848484611b99565b1515146115c8576040517f08c379a00000000000000000000000000000000000000000000000000000000081526004016115bf90614ca8565b60405180910390fd5b61271060016115d5610f9f565b6115df91906147bc565b1115611620576040517f08c379a00000000000000000000000000000000000000000000000000000000081526004016116179061485e565b60405180910390fd5b600f54600161162e8561175e565b61163891906147bc565b1115611679576040517f08c379a000000000000000000000000000000000000000000000000000000000815260040161167090614d3a565b60405180910390fd5b6000611683610f9f565b905061168f8482612ad8565b60016018600083815260200190815260200160002060006101000a81548167ffffffffffffffff021916908367ffffffffffffffff16021790555050505050565b601480546116dd906145f1565b80601f0160208091040260200160405190810160405280929190818152602001828054611709906145f1565b80156117565780601f1061172b57610100808354040283529160200191611756565b820191906000526020600020905b81548152906001019060200180831161173957829003601f168201915b505050505081565b60008073ffffffffffffffffffffffffffffffffffffffff168273ffffffffffffffffffffffffffffffffffffffff1614156117cf576040517f08c379a00000000000000000000000000000000000000000000000000000000081526004016117c690614dcc565b60405180910390fd5b600460008373ffffffffffffffffffffffffffffffffffffffff1673ffffffffffffffffffffffffffffffffffffffff168152602001908152602001600020549050919050565b61181e6126b1565b6118286000612b33565b565b600f5481565b600c5481565b60105481565b60176020528060005260406000206000915054906101000a900460ff1681565b6118646126b1565b80600d8190555050565b600e60009054906101000a900460ff166118bd576040517f08c379a00000000000000000000000000000000000000000000000000000000081526004016118b490614e38565b60405180910390fd5b600160125414611902576040517f08c379a00000000000000000000000000000000000000000000000000000000081526004016118f990614ea4565b60405180910390fd5b6001151561191133848461226a565b151514611953576040517f08c379a000000000000000000000000000000000000000000000000000000000815260040161194a90614f10565b60405180910390fd5b6127106001611960610f9f565b61196a91906147bc565b11156119ab576040517f08c379a00000000000000000000000000000000000000000000000000000000081526004016119a29061485e565b60405180910390fd5b600f5460016119b93361175e565b6119c391906147bc565b1115611a04576040517f08c379a00000000000000000000000000000000000000000000000000000000081526004016119fb906149c8565b60405180910390fd5b6000611a0e610f9f565b9050611a1a3382612ad8565b60016018600083815260200190815260200160002060006101000a81548167ffffffffffffffff021916908367ffffffffffffffff160217905550505050565b60008060009054906101000a900473ffffffffffffffffffffffffffffffffffffffff16905090565b606060028054611a92906145f1565b80601f0160208091040260200160405190810160405280929190818152602001828054611abe906145f1565b8015611b0b5780601f10611ae057610100808354040283529160200191611b0b565b820191906000526020600020905b815481529060010190602001808311611aee57829003601f168201915b5050505050905090565b60008084604051602001611b299190614f78565b604051602081830303815290604052805190602001209050611b8f848480806020026020016040519081016040528093929190818152602001838360200280828437600081840152601f19601f82011690508083019250505050505050600c5483612bf7565b9150509392505050565b60008084604051602001611bad9190614f78565b604051602081830303815290604052805190602001209050611c13848480806020026020016040519081016040528093929190818152602001838360200280828437600081840152601f19601f82011690508083019250505050505050600d5483612bf7565b9150509392505050565b611c256126b1565b80601760008473ffffffffffffffffffffffffffffffffffffffff1673ffffffffffffffffffffffffffffffffffffffff16815260200190815260200160002060006101000a81548160ff0219169083151502179055505050565b611c886126b1565b80600f8190555050565b601760008373ffffffffffffffffffffffffffffffffffffffff1673ffffffffffffffffffffffffffffffffffffffff16815260200190815260200160002060009054906101000a900460ff1615611d1f576040517f08c379a0000000000000000000000000000000000000000000000000000000008152600401611d169061466f565b60405180910390fd5b611d298282612c0e565b5050565b611d356126b1565b600e60009054906101000a900460ff1615600e60006101000a81548160ff021916908315150217905550565b611d72611d6c61272f565b83612737565b611db1576040517f08c379a0000000000000000000000000000000000000000000000000000000008152600401611da890614701565b60405180910390fd5b611dbd84848484612c24565b50505050565b601360009054906101000a900467ffffffffffffffff1681565b60158054611dea906145f1565b80601f0160208091040260200160405190810160405280929190818152602001828054611e16906145f1565b8015611e635780601f10611e3857610100808354040283529160200191611e63565b820191906000526020600020905b815481529060010190602001808311611e4657829003601f168201915b505050505081565b6060611e7682612c80565b611eb5576040517f08c379a0000000000000000000000000000000000000000000000000000000008152600401611eac90615005565b60405180910390fd5b6000611ebf612cc1565b905080611ecb84612d53565b6015604051602001611edf93929190615141565b604051602081830303815290604052915050919050565b611efe6126b1565b8060159080519060200190611f14929190613b61565b5050565b611f206126b1565b80600c8190555050565b60011515600e60009054906101000a900460ff16151514611f80576040517f08c379a0000000000000000000000000000000000000000000000000000000008152600401611f77906151c9565b60405180910390fd5b600260125414611fc5576040517f08c379a0000000000000000000000000000000000000000000000000000000008152600401611fbc90615235565b60405180910390fd5b6001601360009054906101000a900467ffffffffffffffff1667ffffffffffffffff161015612029576040517f08c379a0000000000000000000000000000000000000000000000000000000008152600401612020906152a1565b60405180910390fd5b600083601360009054906101000a900467ffffffffffffffff1667ffffffffffffffff1661205791906152c1565b1015612098576040517f08c379a000000000000000000000000000000000000000000000000000000000815260040161208f90615341565b60405180910390fd5b600115156120a7338484611b15565b1515146120e9576040517f08c379a00000000000000000000000000000000000000000000000000000000081526004016120e090614f10565b60405180910390fd5b346120ff60115485612ac290919063ffffffff16565b1115612140576040517f08c379a00000000000000000000000000000000000000000000000000000000081526004016121379061476d565b60405180910390fd5b6127108361214c610f9f565b61215691906147bc565b1115612197576040517f08c379a000000000000000000000000000000000000000000000000000000000815260040161218e9061485e565b60405180910390fd5b60005b83811015612264576001601360009054906101000a900467ffffffffffffffff166121c59190615361565b601360006101000a81548167ffffffffffffffff021916908367ffffffffffffffff1602179055506127106121f8610f9f565b1015612251576000612208610f9f565b90506122143382612ad8565b60016018600083815260200190815260200160002060006101000a81548167ffffffffffffffff021916908367ffffffffffffffff160217905550505b808061225c90614a54565b91505061219a565b50505050565b6000808460405160200161227e9190614f78565b6040516020818303038152906040528051906020012090506122e4848480806020026020016040519081016040528093929190818152602001838360200280828437600081840152601f19601f82011690508083019250505050505050600b5483612bf7565b9150509392505050565b6000600660008473ffffffffffffffffffffffffffffffffffffffff1673ffffffffffffffffffffffffffffffffffffffff16815260200190815260200160002060008373ffffffffffffffffffffffffffffffffffffffff1673ffffffffffffffffffffffffffffffffffffffff16815260200190815260200160002060009054906101000a900460ff16905092915050565b61238a6126b1565b80600b8190555050565b60196020528060005260406000206000915054906101000a900460ff1681565b6123bc6126b1565b600073ffffffffffffffffffffffffffffffffffffffff168173ffffffffffffffffffffffffffffffffffffffff16141561242c576040517f08c379a000000000000000000000000000000000000000000000000000000000815260040161242390615407565b60405180910390fd5b61243581612b33565b50565b6124406126b1565b80601360006101000a81548167ffffffffffffffff021916908367ffffffffffffffff16021790555050565b60007f80ac58cd000000000000000000000000000000000000000000000000000000007bffffffffffffffffffffffffffffffffffffffffffffffffffffffff1916827bffffffffffffffffffffffffffffffffffffffffffffffffffffffff1916148061253757507f5b5e139f000000000000000000000000000000000000000000000000000000007bffffffffffffffffffffffffffffffffffffffffffffffffffffffff1916827bffffffffffffffffffffffffffffffffffffffffffffffffffffffff1916145b80612547575061254682612e2b565b5b9050919050565b61255781612c80565b612596576040517f08c379a000000000000000000000000000000000000000000000000000000000815260040161258d90614c3c565b60405180910390fd5b50565b60006125a4826114e2565b90508073ffffffffffffffffffffffffffffffffffffffff168373ffffffffffffffffffffffffffffffffffffffff161415612615576040517f08c379a000000000000000000000000000000000000000000000000000000000815260040161260c90615499565b60405180910390fd5b8073ffffffffffffffffffffffffffffffffffffffff1661263461272f565b73ffffffffffffffffffffffffffffffffffffffff16148061266357506126628161265d61272f565b6122ee565b5b6126a2576040517f08c379a00000000000000000000000000000000000000000000000000000000081526004016126999061552b565b60405180910390fd5b6126ac8383612e95565b505050565b6126b961272f565b73ffffffffffffffffffffffffffffffffffffffff166126d7611a5a565b73ffffffffffffffffffffffffffffffffffffffff161461272d576040517f08c379a000000000000000000000000000000000000000000000000000000000815260040161272490615597565b60405180910390fd5b565b600033905090565b600080612743836114e2565b90508073ffffffffffffffffffffffffffffffffffffffff168473ffffffffffffffffffffffffffffffffffffffff161480612785575061278481856122ee565b5b806127c357508373ffffffffffffffffffffffffffffffffffffffff166127ab84610e6b565b73ffffffffffffffffffffffffffffffffffffffff16145b91505092915050565b8273ffffffffffffffffffffffffffffffffffffffff166127ec826114e2565b73ffffffffffffffffffffffffffffffffffffffff1614612842576040517f08c379a000000000000000000000000000000000000000000000000000000000815260040161283990615629565b60405180910390fd5b600073ffffffffffffffffffffffffffffffffffffffff168273ffffffffffffffffffffffffffffffffffffffff1614156128b2576040517f08c379a00000000000000000000000000000000000000000000000000000000081526004016128a9906156bb565b60405180910390fd5b6128bd838383612f4e565b8273ffffffffffffffffffffffffffffffffffffffff166128dd826114e2565b73ffffffffffffffffffffffffffffffffffffffff1614612933576040517f08c379a000000000000000000000000000000000000000000000000000000000815260040161292a90615629565b60405180910390fd5b6005600082815260200190815260200160002060006101000a81549073ffffffffffffffffffffffffffffffffffffffff02191690556001600460008573ffffffffffffffffffffffffffffffffffffffff1673ffffffffffffffffffffffffffffffffffffffff168152602001908152602001600020600082825403925050819055506001600460008473ffffffffffffffffffffffffffffffffffffffff1673ffffffffffffffffffffffffffffffffffffffff16815260200190815260200160002060008282540192505081905550816003600083815260200190815260200160002060006101000a81548173ffffffffffffffffffffffffffffffffffffffff021916908373ffffffffffffffffffffffffffffffffffffffff160217905550808273ffffffffffffffffffffffffffffffffffffffff168473ffffffffffffffffffffffffffffffffffffffff167fddf252ad1be2c89b69c2b068fc378daa952ba7f163c4a11628f55a4df523b3ef60405160405180910390a4612abd838383612fc5565b505050565b60008183612ad091906156db565b905092915050565b612af2828260405180602001604052806000815250612fca565b5050565b60006003600083815260200190815260200160002060009054906101000a900473ffffffffffffffffffffffffffffffffffffffff169050919050565b60008060009054906101000a900473ffffffffffffffffffffffffffffffffffffffff169050816000806101000a81548173ffffffffffffffffffffffffffffffffffffffff021916908373ffffffffffffffffffffffffffffffffffffffff1602179055508173ffffffffffffffffffffffffffffffffffffffff168173ffffffffffffffffffffffffffffffffffffffff167f8be0079c531659141344cd1fd0a4f28419497f9722a3daafe3b4186f6b6457e060405160405180910390a35050565b600082612c048584613025565b1490509392505050565b612c20612c1961272f565b838361307b565b5050565b612c2f8484846127cc565b612c3b848484846131e8565b612c7a576040517f08c379a0000000000000000000000000000000000000000000000000000000008152600401612c71906157a7565b60405180910390fd5b50505050565b60008073ffffffffffffffffffffffffffffffffffffffff16612ca283612af6565b73ffffffffffffffffffffffffffffffffffffffff1614159050919050565b606060148054612cd0906145f1565b80601f0160208091040260200160405190810160405280929190818152602001828054612cfc906145f1565b8015612d495780601f10612d1e57610100808354040283529160200191612d49565b820191906000526020600020905b815481529060010190602001808311612d2c57829003601f168201915b5050505050905090565b606060006001612d6284613370565b01905060008167ffffffffffffffff811115612d8157612d806140a4565b5b6040519080825280601f01601f191660200182016040528015612db35781602001600182028036833780820191505090505b509050600082602001820190505b600115612e20578080600190039150507f3031323334353637383961626364656600000000000000000000000000000000600a86061a8153600a8581612e0a57612e096157c7565b5b0494506000851415612e1b57612e20565b612dc1565b819350505050919050565b60007f01ffc9a7000000000000000000000000000000000000000000000000000000007bffffffffffffffffffffffffffffffffffffffffffffffffffffffff1916827bffffffffffffffffffffffffffffffffffffffffffffffffffffffff1916149050919050565b816005600083815260200190815260200160002060006101000a81548173ffffffffffffffffffffffffffffffffffffffff021916908373ffffffffffffffffffffffffffffffffffffffff160217905550808273ffffffffffffffffffffffffffffffffffffffff16612f08836114e2565b73ffffffffffffffffffffffffffffffffffffffff167f8c5be1e5ebec7d5bd14f71427d1e84f3dd0314c0f7b2291e5b200ac8c7c3b92560405160405180910390a45050565b600015156019600083815260200190815260200160002060009054906101000a900460ff16151514612fb5576040517f08c379a0000000000000000000000000000000000000000000000000000000008152600401612fac90615842565b60405180910390fd5b612fc08383836134c3565b505050565b505050565b612fd483836135d7565b612fe160008484846131e8565b613020576040517f08c379a0000000000000000000000000000000000000000000000000000000008152600401613017906157a7565b60405180910390fd5b505050565b60008082905060005b84518110156130705761305b8286838151811061304e5761304d614bc1565b5b60200260200101516137f1565b9150808061306890614a54565b91505061302e565b508091505092915050565b8173ffffffffffffffffffffffffffffffffffffffff168373ffffffffffffffffffffffffffffffffffffffff1614156130ea576040517f08c379a00000000000000000000000000000000000000000000000000000000081526004016130e1906158ae565b60405180910390fd5b80600660008573ffffffffffffffffffffffffffffffffffffffff1673ffffffffffffffffffffffffffffffffffffffff16815260200190815260200160002060008473ffffffffffffffffffffffffffffffffffffffff1673ffffffffffffffffffffffffffffffffffffffff16815260200190815260200160002060006101000a81548160ff0219169083151502179055508173ffffffffffffffffffffffffffffffffffffffff168373ffffffffffffffffffffffffffffffffffffffff167f17307eab39ab6107e8899845ad3d59bd9653f200f220920489ca2b5937696c31836040516131db9190613cb8565b60405180910390a3505050565b60006132098473ffffffffffffffffffffffffffffffffffffffff1661381c565b15613363578373ffffffffffffffffffffffffffffffffffffffff1663150b7a0261323261272f565b8786866040518563ffffffff1660e01b81526004016132549493929190615923565b6020604051808303816000875af192505050801561329057506040513d601f19601f8201168201806040525081019061328d9190615984565b60015b613313573d80600081146132c0576040519150601f19603f3d011682016040523d82523d6000602084013e6132c5565b606091505b5060008151141561330b576040517f08c379a0000000000000000000000000000000000000000000000000000000008152600401613302906157a7565b60405180910390fd5b805181602001fd5b63150b7a0260e01b7bffffffffffffffffffffffffffffffffffffffffffffffffffffffff1916817bffffffffffffffffffffffffffffffffffffffffffffffffffffffff191614915050613368565b600190505b949350505050565b600080600090507a184f03e93ff9f4daa797ed6e38ed64bf6a1f01000000000000000083106133ce577a184f03e93ff9f4daa797ed6e38ed64bf6a1f01000000000000000083816133c4576133c36157c7565b5b0492506040810190505b6d04ee2d6d415b85acef8100000000831061340b576d04ee2d6d415b85acef81000000008381613401576134006157c7565b5b0492506020810190505b662386f26fc10000831061343a57662386f26fc1000083816134305761342f6157c7565b5b0492506010810190505b6305f5e1008310613463576305f5e1008381613459576134586157c7565b5b0492506008810190505b612710831061348857612710838161347e5761347d6157c7565b5b0492506004810190505b606483106134ab57606483816134a1576134a06157c7565b5b0492506002810190505b600a83106134ba576001810190505b80915050919050565b6134ce83838361383f565b600073ffffffffffffffffffffffffffffffffffffffff168373ffffffffffffffffffffffffffffffffffffffff1614156135115761350c81613844565b613550565b8173ffffffffffffffffffffffffffffffffffffffff168373ffffffffffffffffffffffffffffffffffffffff161461354f5761354e838261388d565b5b5b600073ffffffffffffffffffffffffffffffffffffffff168273ffffffffffffffffffffffffffffffffffffffff1614156135935761358e816139fa565b6135d2565b8273ffffffffffffffffffffffffffffffffffffffff168273ffffffffffffffffffffffffffffffffffffffff16146135d1576135d08282613acb565b5b5b505050565b600073ffffffffffffffffffffffffffffffffffffffff168273ffffffffffffffffffffffffffffffffffffffff161415613647576040517f08c379a000000000000000000000000000000000000000000000000000000000815260040161363e906159fd565b60405180910390fd5b61365081612c80565b15613690576040517f08c379a000000000000000000000000000000000000000000000000000000000815260040161368790615a69565b60405180910390fd5b61369c60008383612f4e565b6136a581612c80565b156136e5576040517f08c379a00000000000000000000000000000000000000000000000000000000081526004016136dc90615a69565b60405180910390fd5b6001600460008473ffffffffffffffffffffffffffffffffffffffff1673ffffffffffffffffffffffffffffffffffffffff16815260200190815260200160002060008282540192505081905550816003600083815260200190815260200160002060006101000a81548173ffffffffffffffffffffffffffffffffffffffff021916908373ffffffffffffffffffffffffffffffffffffffff160217905550808273ffffffffffffffffffffffffffffffffffffffff16600073ffffffffffffffffffffffffffffffffffffffff167fddf252ad1be2c89b69c2b068fc378daa952ba7f163c4a11628f55a4df523b3ef60405160405180910390a46137ed60008383612fc5565b5050565b6000818310613809576138048284613b4a565b613814565b6138138383613b4a565b5b905092915050565b6000808273ffffffffffffffffffffffffffffffffffffffff163b119050919050565b505050565b600980549050600a600083815260200190815260200160002081905550600981908060018154018082558091505060019003906000526020600020016000909190919091505550565b6000600161389a8461175e565b6138a491906152c1565b9050600060086000848152602001908152602001600020549050818114613989576000600760008673ffffffffffffffffffffffffffffffffffffffff1673ffffffffffffffffffffffffffffffffffffffff168152602001908152602001600020600084815260200190815260200160002054905080600760008773ffffffffffffffffffffffffffffffffffffffff1673ffffffffffffffffffffffffffffffffffffffff168152602001908152602001600020600084815260200190815260200160002081905550816008600083815260200190815260200160002081905550505b6008600084815260200190815260200160002060009055600760008573ffffffffffffffffffffffffffffffffffffffff1673ffffffffffffffffffffffffffffffffffffffff16815260200190815260200160002060008381526020019081526020016000206000905550505050565b60006001600980549050613a0e91906152c1565b90506000600a6000848152602001908152602001600020549050600060098381548110613a3e57613a3d614bc1565b5b906000526020600020015490508060098381548110613a6057613a5f614bc1565b5b906000526020600020018190555081600a600083815260200190815260200160002081905550600a6000858152602001908152602001600020600090556009805480613aaf57613aae615a89565b5b6001900381819060005260206000200160009055905550505050565b6000613ad68361175e565b905081600760008573ffffffffffffffffffffffffffffffffffffffff1673ffffffffffffffffffffffffffffffffffffffff168152602001908152602001600020600083815260200190815260200160002081905550806008600084815260200190815260200160002081905550505050565b600082600052816020526040600020905092915050565b828054613b6d906145f1565b90600052602060002090601f016020900481019282613b8f5760008555613bd6565b82601f10613ba857805160ff1916838001178555613bd6565b82800160010185558215613bd6579182015b82811115613bd5578251825591602001919060010190613bba565b5b509050613be39190613be7565b5090565b5b80821115613c00576000816000905550600101613be8565b5090565b6000604051905090565b600080fd5b600080fd5b60007fffffffff0000000000000000000000000000000000000000000000000000000082169050919050565b613c4d81613c18565b8114613c5857600080fd5b50565b600081359050613c6a81613c44565b92915050565b600060208284031215613c8657613c85613c0e565b5b6000613c9484828501613c5b565b91505092915050565b60008115159050919050565b613cb281613c9d565b82525050565b6000602082019050613ccd6000830184613ca9565b92915050565b600081519050919050565b600082825260208201905092915050565b60005b83811015613d0d578082015181840152602081019050613cf2565b83811115613d1c576000848401525b50505050565b6000601f19601f8301169050919050565b6000613d3e82613cd3565b613d488185613cde565b9350613d58818560208601613cef565b613d6181613d22565b840191505092915050565b60006020820190508181036000830152613d868184613d33565b905092915050565b6000819050919050565b613da181613d8e565b8114613dac57600080fd5b50565b600081359050613dbe81613d98565b92915050565b600060208284031215613dda57613dd9613c0e565b5b6000613de884828501613daf565b91505092915050565b600073ffffffffffffffffffffffffffffffffffffffff82169050919050565b6000613e1c82613df1565b9050919050565b613e2c81613e11565b82525050565b6000602082019050613e476000830184613e23565b92915050565b613e5681613e11565b8114613e6157600080fd5b50565b600081359050613e7381613e4d565b92915050565b60008060408385031215613e9057613e8f613c0e565b5b6000613e9e85828601613e64565b9250506020613eaf85828601613daf565b9150509250929050565b613ec281613c9d565b8114613ecd57600080fd5b50565b600081359050613edf81613eb9565b92915050565b60008060408385031215613efc57613efb613c0e565b5b6000613f0a85828601613daf565b9250506020613f1b85828601613ed0565b9150509250929050565b600067ffffffffffffffff82169050919050565b613f4281613f25565b8114613f4d57600080fd5b50565b600081359050613f5f81613f39565b92915050565b600060208284031215613f7b57613f7a613c0e565b5b6000613f8984828501613f50565b91505092915050565b613f9b81613d8e565b82525050565b6000602082019050613fb66000830184613f92565b92915050565b613fc581613f25565b82525050565b6000602082019050613fe06000830184613fbc565b92915050565b600080600060608486031215613fff57613ffe613c0e565b5b600061400d86828701613e64565b935050602061401e86828701613e64565b925050604061402f86828701613daf565b9150509250925092565b60006020828403121561404f5761404e613c0e565b5b600061405d84828501613e64565b91505092915050565b6000819050919050565b61407981614066565b82525050565b60006020820190506140946000830184614070565b92915050565b600080fd5b600080fd5b7f4e487b7100000000000000000000000000000000000000000000000000000000600052604160045260246000fd5b6140dc82613d22565b810181811067ffffffffffffffff821117156140fb576140fa6140a4565b5b80604052505050565b600061410e613c04565b905061411a82826140d3565b919050565b600067ffffffffffffffff82111561413a576141396140a4565b5b61414382613d22565b9050602081019050919050565b82818337600083830152505050565b600061417261416d8461411f565b614104565b90508281526020810184848401111561418e5761418d61409f565b5b614199848285614150565b509392505050565b600082601f8301126141b6576141b561409a565b5b81356141c684826020860161415f565b91505092915050565b6000602082840312156141e5576141e4613c0e565b5b600082013567ffffffffffffffff81111561420357614202613c13565b5b61420f848285016141a1565b91505092915050565b6000806040838503121561422f5761422e613c0e565b5b600061423d85828601613daf565b925050602061424e85828601613f50565b9150509250929050565b600080fd5b600080fd5b60008083601f8401126142785761427761409a565b5b8235905067ffffffffffffffff81111561429557614294614258565b5b6020830191508360208202830111156142b1576142b061425d565b5b9250929050565b6000806000604084860312156142d1576142d0613c0e565b5b60006142df86828701613e64565b935050602084013567ffffffffffffffff811115614300576142ff613c13565b5b61430c86828701614262565b92509250509250925092565b61432181614066565b811461432c57600080fd5b50565b60008135905061433e81614318565b92915050565b60006020828403121561435a57614359613c0e565b5b60006143688482850161432f565b91505092915050565b6000806020838503121561438857614387613c0e565b5b600083013567ffffffffffffffff8111156143a6576143a5613c13565b5b6143b285828601614262565b92509250509250929050565b600080604083850312156143d5576143d4613c0e565b5b60006143e385828601613e64565b92505060206143f485828601613ed0565b9150509250929050565b600067ffffffffffffffff821115614419576144186140a4565b5b61442282613d22565b9050602081019050919050565b600061444261443d846143fe565b614104565b90508281526020810184848401111561445e5761445d61409f565b5b614469848285614150565b509392505050565b600082601f8301126144865761448561409a565b5b813561449684826020860161442f565b91505092915050565b600080600080608085870312156144b9576144b8613c0e565b5b60006144c787828801613e64565b94505060206144d887828801613e64565b93505060406144e987828801613daf565b925050606085013567ffffffffffffffff81111561450a57614509613c13565b5b61451687828801614471565b91505092959194509250565b60008060006040848603121561453b5761453a613c0e565b5b600061454986828701613daf565b935050602084013567ffffffffffffffff81111561456a57614569613c13565b5b61457686828701614262565b92509250509250925092565b6000806040838503121561459957614598613c0e565b5b60006145a785828601613e64565b92505060206145b885828601613e64565b9150509250929050565b7f4e487b7100000000000000000000000000000000000000000000000000000000600052602260045260246000fd5b6000600282049050600182168061460957607f821691505b6020821081141561461d5761461c6145c2565b5b50919050565b7f496e76616c6964206d61726b6574706c6163652c206e6f7420616c6c6f776564600082015250565b6000614659602083613cde565b915061466482614623565b602082019050919050565b600060208201905081810360008301526146888161464c565b9050919050565b7f4552433732313a2063616c6c6572206973206e6f7420746f6b656e206f776e6560008201527f72206f7220617070726f76656400000000000000000000000000000000000000602082015250565b60006146eb602d83613cde565b91506146f68261468f565b604082019050919050565b6000602082019050818103600083015261471a816146de565b9050919050565b7f4e6f7420656e6f7567682065746865722073656e740000000000000000000000600082015250565b6000614757601583613cde565b915061476282614721565b602082019050919050565b600060208201905081810360008301526147868161474a565b9050919050565b7f4e487b7100000000000000000000000000000000000000000000000000000000600052601160045260246000fd5b60006147c782613d8e565b91506147d283613d8e565b9250827fffffffffffffffffffffffffffffffffffffffffffffffffffffffffffffffff038211156148075761480661478d565b5b828201905092915050565b7f53616c6520776f756c6420657863656564206d617820737570706c7900000000600082015250565b6000614848601c83613cde565b915061485382614812565b602082019050919050565b600060208201905081810360008301526148778161483b565b9050919050565b7f4e6f7420696e207075626c69634d696e742074696d6500000000000000000000600082015250565b60006148b4601683613cde565b91506148bf8261487e565b602082019050919050565b600060208201905081810360008301526148e3816148a7565b9050919050565b7f53616c65206d7573742062652061637469766520746f206d696e74204e69634d60008201527f6574617300000000000000000000000000000000000000000000000000000000602082015250565b6000614946602483613cde565b9150614951826148ea565b604082019050919050565b6000602082019050818103600083015261497581614939565b9050919050565b7f53616c6520776f756c6420657863656564206d61782062616c616e6365000000600082015250565b60006149b2601d83613cde565b91506149bd8261497c565b602082019050919050565b600060208201905081810360008301526149e1816149a5565b9050919050565b7f657863656564206d6178206d696e7420617420612074696d6500000000000000600082015250565b6000614a1e601983613cde565b9150614a29826149e8565b602082019050919050565b60006020820190508181036000830152614a4d81614a11565b9050919050565b6000614a5f82613d8e565b91507fffffffffffffffffffffffffffffffffffffffffffffffffffffffffffffffff821415614a9257614a9161478d565b5b600182019050919050565b7f455243373231456e756d657261626c653a206f776e657220696e646578206f7560008201527f74206f6620626f756e6473000000000000000000000000000000000000000000602082015250565b6000614af9602b83613cde565b9150614b0482614a9d565b604082019050919050565b60006020820190508181036000830152614b2881614aec565b9050919050565b7f455243373231456e756d657261626c653a20676c6f62616c20696e646578206f60008201527f7574206f6620626f756e64730000000000000000000000000000000000000000602082015250565b6000614b8b602c83613cde565b9150614b9682614b2f565b604082019050919050565b60006020820190508181036000830152614bba81614b7e565b9050919050565b7f4e487b7100000000000000000000000000000000000000000000000000000000600052603260045260246000fd5b7f4552433732313a20696e76616c696420746f6b656e2049440000000000000000600082015250565b6000614c26601883613cde565b9150614c3182614bf0565b602082019050919050565b60006020820190508181036000830152614c5581614c19565b9050919050565b7f726563697069656e74206973206e6f7420696e2077686974656c697374000000600082015250565b6000614c92601d83613cde565b9150614c9d82614c5c565b602082019050919050565b60006020820190508181036000830152614cc181614c85565b9050919050565b7f457863656564656420746865206d6178696d756d206e756d626572206f66206f60008201527f776e657273686970000000000000000000000000000000000000000000000000602082015250565b6000614d24602883613cde565b9150614d2f82614cc8565b604082019050919050565b60006020820190508181036000830152614d5381614d17565b9050919050565b7f4552433732313a2061646472657373207a65726f206973206e6f74206120766160008201527f6c6964206f776e65720000000000000000000000000000000000000000000000602082015250565b6000614db6602983613cde565b9150614dc182614d5a565b604082019050919050565b60006020820190508181036000830152614de581614da9565b9050919050565b7f54686520616374697669747920686173206e6f74207374617274656420796574600082015250565b6000614e22602083613cde565b9150614e2d82614dec565b602082019050919050565b60006020820190508181036000830152614e5181614e15565b9050919050565b7f4e6f7420696e20667265654d696e742074696d65000000000000000000000000600082015250565b6000614e8e601483613cde565b9150614e9982614e58565b602082019050919050565b60006020820190508181036000830152614ebd81614e81565b9050919050565b7f6d73672e73656e646572206973206e6f7420696e2077686974656c6973740000600082015250565b6000614efa601e83613cde565b9150614f0582614ec4565b602082019050919050565b60006020820190508181036000830152614f2981614eed565b9050919050565b60008160601b9050919050565b6000614f4882614f30565b9050919050565b6000614f5a82614f3d565b9050919050565b614f72614f6d82613e11565b614f4f565b82525050565b6000614f848284614f61565b60148201915081905092915050565b7f4552433732314d657461646174613a2055524920717565727920666f72206e6f60008201527f6e6578697374656e7420746f6b656e0000000000000000000000000000000000602082015250565b6000614fef602f83613cde565b9150614ffa82614f93565b604082019050919050565b6000602082019050818103600083015261501e81614fe2565b9050919050565b600081905092915050565b600061503b82613cd3565b6150458185615025565b9350615055818560208601613cef565b80840191505092915050565b7f2f00000000000000000000000000000000000000000000000000000000000000600082015250565b6000615097600183615025565b91506150a282615061565b600182019050919050565b60008190508160005260206000209050919050565b600081546150cf816145f1565b6150d98186615025565b945060018216600081146150f4576001811461510557615138565b60ff19831686528186019350615138565b61510e856150ad565b60005b8381101561513057815481890152600182019150602081019050615111565b838801955050505b50505092915050565b600061514d8286615030565b91506151588261508a565b91506151648285615030565b915061517082846150c2565b9150819050949350505050565b7f6e6f7420696e2073616c652074696d6500000000000000000000000000000000600082015250565b60006151b3601083613cde565b91506151be8261517d565b602082019050919050565b600060208201905081810360008301526151e2816151a6565b9050919050565b7f4e6f7420696e2070726573616c654d696e742074696d65000000000000000000600082015250565b600061521f601783613cde565b915061522a826151e9565b602082019050919050565b6000602082019050818103600083015261524e81615212565b9050919050565b7f63757272656e742062617463682073616c65206f757400000000000000000000600082015250565b600061528b601683613cde565b915061529682615255565b602082019050919050565b600060208201905081810360008301526152ba8161527e565b9050919050565b60006152cc82613d8e565b91506152d783613d8e565b9250828210156152ea576152e961478d565b5b828203905092915050565b7f63757272656e7420626174636820697320646566696369656e74000000000000600082015250565b600061532b601a83613cde565b9150615336826152f5565b602082019050919050565b6000602082019050818103600083015261535a8161531e565b9050919050565b600061536c82613f25565b915061537783613f25565b92508282101561538a5761538961478d565b5b828203905092915050565b7f4f776e61626c653a206e6577206f776e657220697320746865207a65726f206160008201527f6464726573730000000000000000000000000000000000000000000000000000602082015250565b60006153f1602683613cde565b91506153fc82615395565b604082019050919050565b60006020820190508181036000830152615420816153e4565b9050919050565b7f4552433732313a20617070726f76616c20746f2063757272656e74206f776e6560008201527f7200000000000000000000000000000000000000000000000000000000000000602082015250565b6000615483602183613cde565b915061548e82615427565b604082019050919050565b600060208201905081810360008301526154b281615476565b9050919050565b7f4552433732313a20617070726f76652063616c6c6572206973206e6f7420746f60008201527f6b656e206f776e6572206f7220617070726f76656420666f7220616c6c000000602082015250565b6000615515603d83613cde565b9150615520826154b9565b604082019050919050565b6000602082019050818103600083015261554481615508565b9050919050565b7f4f776e61626c653a2063616c6c6572206973206e6f7420746865206f776e6572600082015250565b6000615581602083613cde565b915061558c8261554b565b602082019050919050565b600060208201905081810360008301526155b081615574565b9050919050565b7f4552433732313a207472616e736665722066726f6d20696e636f72726563742060008201527f6f776e6572000000000000000000000000000000000000000000000000000000602082015250565b6000615613602583613cde565b915061561e826155b7565b604082019050919050565b6000602082019050818103600083015261564281615606565b9050919050565b7f4552433732313a207472616e7366657220746f20746865207a65726f2061646460008201527f7265737300000000000000000000000000000000000000000000000000000000602082015250565b60006156a5602483613cde565b91506156b082615649565b604082019050919050565b600060208201905081810360008301526156d481615698565b9050919050565b60006156e682613d8e565b91506156f183613d8e565b9250817fffffffffffffffffffffffffffffffffffffffffffffffffffffffffffffffff048311821515161561572a5761572961478d565b5b828202905092915050565b7f4552433732313a207472616e7366657220746f206e6f6e20455243373231526560008201527f63656976657220696d706c656d656e7465720000000000000000000000000000602082015250565b6000615791603283613cde565b915061579c82615735565b604082019050919050565b600060208201905081810360008301526157c081615784565b9050919050565b7f4e487b7100000000000000000000000000000000000000000000000000000000600052601260045260246000fd5b7f6e6674206973207374616b696e67000000000000000000000000000000000000600082015250565b600061582c600e83613cde565b9150615837826157f6565b602082019050919050565b6000602082019050818103600083015261585b8161581f565b9050919050565b7f4552433732313a20617070726f766520746f2063616c6c657200000000000000600082015250565b6000615898601983613cde565b91506158a382615862565b602082019050919050565b600060208201905081810360008301526158c78161588b565b9050919050565b600081519050919050565b600082825260208201905092915050565b60006158f5826158ce565b6158ff81856158d9565b935061590f818560208601613cef565b61591881613d22565b840191505092915050565b60006080820190506159386000830187613e23565b6159456020830186613e23565b6159526040830185613f92565b818103606083015261596481846158ea565b905095945050505050565b60008151905061597e81613c44565b92915050565b60006020828403121561599a57615999613c0e565b5b60006159a88482850161596f565b91505092915050565b7f4552433732313a206d696e7420746f20746865207a65726f2061646472657373600082015250565b60006159e7602083613cde565b91506159f2826159b1565b602082019050919050565b60006020820190508181036000830152615a16816159da565b9050919050565b7f4552433732313a20746f6b656e20616c7265616479206d696e74656400000000600082015250565b6000615a53601c83613cde565b9150615a5e82615a1d565b602082019050919050565b60006020820190508181036000830152615a8281615a46565b9050919050565b7f4e487b7100000000000000000000000000000000000000000000000000000000600052603160045260246000fdfea264697066735822122062fc4912fb4b513da6c7d4f8f007d6b3a3cf681dd30a3139720f2f962e2c291264736f6c634300080a0033697066733a2f2f516d544b795369687352394252557a736657584b74334c654d436231425378704c516a6e644a4c6869456538706b",
  "linkReferences": {},
  "deployedLinkReferences": {}
}