{
  "_format": "hh-sol-artifact-1",
  "contractName": "TrekkiNFT",
  "sourceName": "contracts/TrekkiNFT.sol",
  "abi": [
    {
      "inputs": [],
      "stateMutability": "nonpayable",
      "type": "constructor"
    },
    {
      "anonymous": false,
      "inputs": [
        {
          "indexed": true,
          "internalType": "address",
          "name": "owner",
          "type": "address"
        },
        {
          "indexed": true,
          "internalType": "address",
          "name": "approved",
          "type": "address"
        },
        {
          "indexed": true,
          "internalType": "uint256",
          "name": "tokenId",
          "type": "uint256"
        }
      ],
      "name": "Approval",
      "type": "event"
    },
    {
      "anonymous": false,
      "inputs": [
        {
          "indexed": true,
          "internalType": "address",
          "name": "owner",
          "type": "address"
        },
        {
          "indexed": true,
          "internalType": "address",
          "name": "operator",
          "type": "address"
        },
        {
          "indexed": false,
          "internalType": "bool",
          "name": "approved",
          "type": "bool"
        }
      ],
      "name": "ApprovalForAll",
      "type": "event"
    },
    {
      "anonymous": false,
      "inputs": [
        {
          "indexed": true,
          "internalType": "address",
          "name": "previousOwner",
          "type": "address"
        },
        {
          "indexed": true,
          "internalType": "address",
          "name": "newOwner",
          "type": "address"
        }
      ],
      "name": "OwnershipTransferred",
      "type": "event"
    },
    {
      "anonymous": false,
      "inputs": [
        {
          "indexed": true,
          "internalType": "address",
          "name": "from",
          "type": "address"
        },
        {
          "indexed": true,
          "internalType": "address",
          "name": "to",
          "type": "address"
        },
        {
          "indexed": true,
          "internalType": "uint256",
          "name": "tokenId",
          "type": "uint256"
        }
      ],
      "name": "Transfer",
      "type": "event"
    },
    {
      "stateMutability": "payable",
      "type": "fallback"
    },
    {
      "inputs": [],
      "name": "MAX_SUPPLY",
      "outputs": [
        {
          "internalType": "uint256",
          "name": "",
          "type": "uint256"
        }
      ],
      "stateMutability": "view",
      "type": "function"
    },
    {
      "inputs": [
        {
          "internalType": "address",
          "name": "to",
          "type": "address"
        },
        {
          "internalType": "bytes32[]",
          "name": "merkleProof",
          "type": "bytes32[]"
        },
        {
          "internalType": "uint256",
          "name": "numberOfTokens",
          "type": "uint256"
        }
      ],
      "name": "airDrop",
      "outputs": [],
      "stateMutability": "nonpayable",
      "type": "function"
    },
    {
      "inputs": [],
      "name": "airdropRootHash",
      "outputs": [
        {
          "internalType": "bytes32",
          "name": "",
          "type": "bytes32"
        }
      ],
      "stateMutability": "view",
      "type": "function"
    },
    {
      "inputs": [
        {
          "internalType": "address",
          "name": "to",
          "type": "address"
        },
        {
          "internalType": "uint256",
          "name": "tokenId",
          "type": "uint256"
        }
      ],
      "name": "approve",
      "outputs": [],
      "stateMutability": "nonpayable",
      "type": "function"
    },
    {
      "inputs": [
        {
          "internalType": "address",
          "name": "owner",
          "type": "address"
        }
      ],
      "name": "balanceOf",
      "outputs": [
        {
          "internalType": "uint256",
          "name": "",
          "type": "uint256"
        }
      ],
      "stateMutability": "view",
      "type": "function"
    },
    {
      "inputs": [],
      "name": "baseExtension",
      "outputs": [
        {
          "internalType": "string",
          "name": "",
          "type": "string"
        }
      ],
      "stateMutability": "view",
      "type": "function"
    },
    {
      "inputs": [],
      "name": "baseURI",
      "outputs": [
        {
          "internalType": "string",
          "name": "",
          "type": "string"
        }
      ],
      "stateMutability": "view",
      "type": "function"
    },
    {
      "inputs": [],
      "name": "batchNumber",
      "outputs": [
        {
          "internalType": "uint256",
          "name": "",
          "type": "uint256"
        }
      ],
      "stateMutability": "view",
      "type": "function"
    },
    {
      "inputs": [
        {
          "internalType": "address",
          "name": "",
          "type": "address"
        }
      ],
      "name": "blockedMarketplaces",
      "outputs": [
        {
          "internalType": "bool",
          "name": "",
          "type": "bool"
        }
      ],
      "stateMutability": "view",
      "type": "function"
    },
    {
      "inputs": [],
      "name": "flipMintActive",
      "outputs": [],
      "stateMutability": "nonpayable",
      "type": "function"
    },
    {
      "inputs": [],
      "name": "flipRevealedState",
      "outputs": [],
      "stateMutability": "nonpayable",
      "type": "function"
    },
    {
      "inputs": [
        {
          "internalType": "bytes32[]",
          "name": "merkleProof",
          "type": "bytes32[]"
        }
      ],
      "name": "freeMint",
      "outputs": [],
      "stateMutability": "payable",
      "type": "function"
    },
    {
      "inputs": [
        {
          "internalType": "address",
          "name": "",
          "type": "address"
        }
      ],
      "name": "freeMintCount",
      "outputs": [
        {
          "internalType": "uint256",
          "name": "",
          "type": "uint256"
        }
      ],
      "stateMutability": "view",
      "type": "function"
    },
    {
      "inputs": [],
      "name": "freeMintLimitCount",
      "outputs": [
        {
          "internalType": "uint64",
          "name": "",
          "type": "uint64"
        }
      ],
      "stateMutability": "view",
      "type": "function"
    },
    {
      "inputs": [],
      "name": "freeMintRootHash",
      "outputs": [
        {
          "internalType": "bytes32",
          "name": "",
          "type": "bytes32"
        }
      ],
      "stateMutability": "view",
      "type": "function"
    },
    {
      "inputs": [
        {
          "internalType": "uint256",
          "name": "tokenId",
          "type": "uint256"
        }
      ],
      "name": "getApproved",
      "outputs": [
        {
          "internalType": "address",
          "name": "",
          "type": "address"
        }
      ],
      "stateMutability": "view",
      "type": "function"
    },
    {
      "inputs": [
        {
          "internalType": "address",
          "name": "owner",
          "type": "address"
        },
        {
          "internalType": "address",
          "name": "operator",
          "type": "address"
        }
      ],
      "name": "isApprovedForAll",
      "outputs": [
        {
          "internalType": "bool",
          "name": "",
          "type": "bool"
        }
      ],
      "stateMutability": "view",
      "type": "function"
    },
    {
      "inputs": [
        {
          "internalType": "address",
          "name": "user",
          "type": "address"
        },
        {
          "internalType": "bytes32[]",
          "name": "merkleProof",
          "type": "bytes32[]"
        }
      ],
      "name": "isValidUser",
      "outputs": [
        {
          "internalType": "bool",
          "name": "",
          "type": "bool"
        }
      ],
      "stateMutability": "view",
      "type": "function"
    },
    {
      "inputs": [
        {
          "internalType": "uint256",
          "name": "",
          "type": "uint256"
        }
      ],
      "name": "lotteryCount",
      "outputs": [
        {
          "internalType": "uint64",
          "name": "",
          "type": "uint64"
        }
      ],
      "stateMutability": "view",
      "type": "function"
    },
    {
      "inputs": [],
      "name": "maxBalance",
      "outputs": [
        {
          "internalType": "uint256",
          "name": "",
          "type": "uint256"
        }
      ],
      "stateMutability": "view",
      "type": "function"
    },
    {
      "inputs": [],
      "name": "mintIsActive",
      "outputs": [
        {
          "internalType": "bool",
          "name": "",
          "type": "bool"
        }
      ],
      "stateMutability": "view",
      "type": "function"
    },
    {
      "inputs": [],
      "name": "name",
      "outputs": [
        {
          "internalType": "string",
          "name": "",
          "type": "string"
        }
      ],
      "stateMutability": "view",
      "type": "function"
    },
    {
      "inputs": [],
      "name": "owner",
      "outputs": [
        {
          "internalType": "address",
          "name": "",
          "type": "address"
        }
      ],
      "stateMutability": "view",
      "type": "function"
    },
    {
      "inputs": [
        {
          "internalType": "uint256",
          "name": "tokenId",
          "type": "uint256"
        }
      ],
      "name": "ownerOf",
      "outputs": [
        {
          "internalType": "address",
          "name": "",
          "type": "address"
        }
      ],
      "stateMutability": "view",
      "type": "function"
    },
    {
      "inputs": [
        {
          "internalType": "uint256",
          "name": "numberOfTokens",
          "type": "uint256"
        },
        {
          "internalType": "bytes32[]",
          "name": "merkleProof",
          "type": "bytes32[]"
        }
      ],
      "name": "presaleMintOne",
      "outputs": [],
      "stateMutability": "payable",
      "type": "function"
    },
    {
      "inputs": [
        {
          "internalType": "address",
          "name": "",
          "type": "address"
        }
      ],
      "name": "presaleMintOneCount",
      "outputs": [
        {
          "internalType": "uint256",
          "name": "",
          "type": "uint256"
        }
      ],
      "stateMutability": "view",
      "type": "function"
    },
    {
      "inputs": [],
      "name": "presaleMintOneLimitCount",
      "outputs": [
        {
          "internalType": "uint64",
          "name": "",
          "type": "uint64"
        }
      ],
      "stateMutability": "view",
      "type": "function"
    },
    {
      "inputs": [],
      "name": "presaleMintOnePrice",
      "outputs": [
        {
          "internalType": "uint256",
          "name": "",
          "type": "uint256"
        }
      ],
      "stateMutability": "view",
      "type": "function"
    },
    {
      "inputs": [],
      "name": "presaleMintOneRootHash",
      "outputs": [
        {
          "internalType": "bytes32",
          "name": "",
          "type": "bytes32"
        }
      ],
      "stateMutability": "view",
      "type": "function"
    },
    {
      "inputs": [
        {
          "internalType": "uint256",
          "name": "numberOfTokens",
          "type": "uint256"
        },
        {
          "internalType": "bytes32[]",
          "name": "merkleProof",
          "type": "bytes32[]"
        }
      ],
      "name": "presaleMintTwo",
      "outputs": [],
      "stateMutability": "payable",
      "type": "function"
    },
    {
      "inputs": [
        {
          "internalType": "address",
          "name": "",
          "type": "address"
        }
      ],
      "name": "presaleMintTwoCount",
      "outputs": [
        {
          "internalType": "uint256",
          "name": "",
          "type": "uint256"
        }
      ],
      "stateMutability": "view",
      "type": "function"
    },
    {
      "inputs": [],
      "name": "presaleMintTwoLimitCount",
      "outputs": [
        {
          "internalType": "uint64",
          "name": "",
          "type": "uint64"
        }
      ],
      "stateMutability": "view",
      "type": "function"
    },
    {
      "inputs": [],
      "name": "presaleMintTwoPrice",
      "outputs": [
        {
          "internalType": "uint256",
          "name": "",
          "type": "uint256"
        }
      ],
      "stateMutability": "view",
      "type": "function"
    },
    {
      "inputs": [],
      "name": "presaleMintTwoRootHash",
      "outputs": [
        {
          "internalType": "bytes32",
          "name": "",
          "type": "bytes32"
        }
      ],
      "stateMutability": "view",
      "type": "function"
    },
    {
      "inputs": [
        {
          "internalType": "uint256",
          "name": "numberOfTokens",
          "type": "uint256"
        }
      ],
      "name": "publicMint",
      "outputs": [],
      "stateMutability": "payable",
      "type": "function"
    },
    {
      "inputs": [],
      "name": "publicMintPrice",
      "outputs": [
        {
          "internalType": "uint256",
          "name": "",
          "type": "uint256"
        }
      ],
      "stateMutability": "view",
      "type": "function"
    },
    {
      "inputs": [],
      "name": "renounceOwnership",
      "outputs": [],
      "stateMutability": "nonpayable",
      "type": "function"
    },
    {
      "inputs": [],
      "name": "revealedState",
      "outputs": [
        {
          "internalType": "bool",
          "name": "",
          "type": "bool"
        }
      ],
      "stateMutability": "view",
      "type": "function"
    },
    {
      "inputs": [
        {
          "internalType": "address",
          "name": "from",
          "type": "address"
        },
        {
          "internalType": "address",
          "name": "to",
          "type": "address"
        },
        {
          "internalType": "uint256",
          "name": "tokenId",
          "type": "uint256"
        }
      ],
      "name": "safeTransferFrom",
      "outputs": [],
      "stateMutability": "nonpayable",
      "type": "function"
    },
    {
      "inputs": [
        {
          "internalType": "address",
          "name": "from",
          "type": "address"
        },
        {
          "internalType": "address",
          "name": "to",
          "type": "address"
        },
        {
          "internalType": "uint256",
          "name": "tokenId",
          "type": "uint256"
        },
        {
          "internalType": "bytes",
          "name": "data",
          "type": "bytes"
        }
      ],
      "name": "safeTransferFrom",
      "outputs": [],
      "stateMutability": "nonpayable",
      "type": "function"
    },
    {
      "inputs": [],
      "name": "saleStage",
      "outputs": [
        {
          "internalType": "uint256",
          "name": "",
          "type": "uint256"
        }
      ],
      "stateMutability": "view",
      "type": "function"
    },
    {
      "inputs": [
        {
          "internalType": "bytes32",
          "name": "_merkleRootHash",
          "type": "bytes32"
        }
      ],
      "name": "setAirDropRootHash",
      "outputs": [],
      "stateMutability": "nonpayable",
      "type": "function"
    },
    {
      "inputs": [
        {
          "internalType": "address",
          "name": "operator",
          "type": "address"
        },
        {
          "internalType": "bool",
          "name": "approved",
          "type": "bool"
        }
      ],
      "name": "setApprovalForAll",
      "outputs": [],
      "stateMutability": "nonpayable",
      "type": "function"
    },
    {
      "inputs": [
        {
          "internalType": "string",
          "name": "_newBaseExtension",
          "type": "string"
        }
      ],
      "name": "setBaseExtension",
      "outputs": [],
      "stateMutability": "nonpayable",
      "type": "function"
    },
    {
      "inputs": [
        {
          "internalType": "string",
          "name": "_newBaseURI",
          "type": "string"
        }
      ],
      "name": "setBaseURI",
      "outputs": [],
      "stateMutability": "nonpayable",
      "type": "function"
    },
    {
      "inputs": [
        {
          "internalType": "uint256",
          "name": "_batchNumber",
          "type": "uint256"
        }
      ],
      "name": "setBatchNumber",
      "outputs": [],
      "stateMutability": "nonpayable",
      "type": "function"
    },
    {
      "inputs": [
        {
          "internalType": "address",
          "name": "marketplace",
          "type": "address"
        },
        {
          "internalType": "bool",
          "name": "blocked",
          "type": "bool"
        }
      ],
      "name": "setBlockedMarketPlace",
      "outputs": [],
      "stateMutability": "nonpayable",
      "type": "function"
    },
    {
      "inputs": [
        {
          "internalType": "uint64",
          "name": "_maxMint",
          "type": "uint64"
        }
      ],
      "name": "setFreeMintLimitCount",
      "outputs": [],
      "stateMutability": "nonpayable",
      "type": "function"
    },
    {
      "inputs": [
        {
          "internalType": "bytes32",
          "name": "_merkleRootHash",
          "type": "bytes32"
        }
      ],
      "name": "setFreeMintRootHash",
      "outputs": [],
      "stateMutability": "nonpayable",
      "type": "function"
    },
    {
      "inputs": [
        {
          "internalType": "uint256",
          "name": "tokenId",
          "type": "uint256"
        },
        {
          "internalType": "uint64",
          "name": "_lotteryCount",
          "type": "uint64"
        }
      ],
      "name": "setLotteryCount",
      "outputs": [],
      "stateMutability": "nonpayable",
      "type": "function"
    },
    {
      "inputs": [
        {
          "internalType": "uint256",
          "name": "_maxBalance",
          "type": "uint256"
        }
      ],
      "name": "setMaxBalance",
      "outputs": [],
      "stateMutability": "nonpayable",
      "type": "function"
    },
    {
      "inputs": [
        {
          "internalType": "uint64",
          "name": "_maxMint",
          "type": "uint64"
        }
      ],
      "name": "setPresaleMintOneLimitCount",
      "outputs": [],
      "stateMutability": "nonpayable",
      "type": "function"
    },
    {
      "inputs": [
        {
          "internalType": "bytes32",
          "name": "_merkleRootHash",
          "type": "bytes32"
        }
      ],
      "name": "setPresaleMintOneRootHash",
      "outputs": [],
      "stateMutability": "nonpayable",
      "type": "function"
    },
    {
      "inputs": [
        {
          "internalType": "uint64",
          "name": "_maxMint",
          "type": "uint64"
        }
      ],
      "name": "setPresaleMintTwoLimitCount",
      "outputs": [],
      "stateMutability": "nonpayable",
      "type": "function"
    },
    {
      "inputs": [
        {
          "internalType": "bytes32",
          "name": "_merkleRootHash",
          "type": "bytes32"
        }
      ],
      "name": "setPresaleMintTwoRootHash",
      "outputs": [],
      "stateMutability": "nonpayable",
      "type": "function"
    },
    {
      "inputs": [
        {
          "internalType": "uint64",
          "name": "_stage",
          "type": "uint64"
        }
      ],
      "name": "setSaleStage",
      "outputs": [],
      "stateMutability": "nonpayable",
      "type": "function"
    },
    {
      "inputs": [
        {
          "internalType": "uint256",
          "name": "tokenId",
          "type": "uint256"
        },
        {
          "internalType": "bool",
          "name": "_isStaking",
          "type": "bool"
        }
      ],
      "name": "setStakingStatus",
      "outputs": [],
      "stateMutability": "nonpayable",
      "type": "function"
    },
    {
      "inputs": [
        {
          "internalType": "uint256",
          "name": "",
          "type": "uint256"
        }
      ],
      "name": "stakingStatus",
      "outputs": [
        {
          "internalType": "bool",
          "name": "",
          "type": "bool"
        }
      ],
      "stateMutability": "view",
      "type": "function"
    },
    {
      "inputs": [
        {
          "internalType": "bytes4",
          "name": "interfaceId",
          "type": "bytes4"
        }
      ],
      "name": "supportsInterface",
      "outputs": [
        {
          "internalType": "bool",
          "name": "",
          "type": "bool"
        }
      ],
      "stateMutability": "view",
      "type": "function"
    },
    {
      "inputs": [],
      "name": "symbol",
      "outputs": [
        {
          "internalType": "string",
          "name": "",
          "type": "string"
        }
      ],
      "stateMutability": "view",
      "type": "function"
    },
    {
      "inputs": [
        {
          "internalType": "uint256",
          "name": "index",
          "type": "uint256"
        }
      ],
      "name": "tokenByIndex",
      "outputs": [
        {
          "internalType": "uint256",
          "name": "",
          "type": "uint256"
        }
      ],
      "stateMutability": "view",
      "type": "function"
    },
    {
      "inputs": [
        {
          "internalType": "address",
          "name": "owner",
          "type": "address"
        },
        {
          "internalType": "uint256",
          "name": "index",
          "type": "uint256"
        }
      ],
      "name": "tokenOfOwnerByIndex",
      "outputs": [
        {
          "internalType": "uint256",
          "name": "",
          "type": "uint256"
        }
      ],
      "stateMutability": "view",
      "type": "function"
    },
    {
      "inputs": [
        {
          "internalType": "uint256",
          "name": "tokenId",
          "type": "uint256"
        }
      ],
      "name": "tokenURI",
      "outputs": [
        {
          "internalType": "string",
          "name": "",
          "type": "string"
        }
      ],
      "stateMutability": "view",
      "type": "function"
    },
    {
      "inputs": [],
      "name": "totalSupply",
      "outputs": [
        {
          "internalType": "uint256",
          "name": "",
          "type": "uint256"
        }
      ],
      "stateMutability": "view",
      "type": "function"
    },
    {
      "inputs": [
        {
          "internalType": "address",
          "name": "from",
          "type": "address"
        },
        {
          "internalType": "address",
          "name": "to",
          "type": "address"
        },
        {
          "internalType": "uint256",
          "name": "tokenId",
          "type": "uint256"
        }
      ],
      "name": "transferFrom",
      "outputs": [],
      "stateMutability": "nonpayable",
      "type": "function"
    },
    {
      "inputs": [
        {
          "internalType": "address",
          "name": "newOwner",
          "type": "address"
        }
      ],
      "name": "transferOwnership",
      "outputs": [],
      "stateMutability": "nonpayable",
      "type": "function"
    },
    {
      "inputs": [
        {
          "internalType": "address",
          "name": "to",
          "type": "address"
        }
      ],
      "name": "withdrawMoney",
      "outputs": [],
      "stateMutability": "nonpayable",
      "type": "function"
    },
    {
      "stateMutability": "payable",
      "type": "receive"
    }
  ],
  "bytecode": "0x60806040527f6605f8e6f523fc8991d078dec5279f9e0681539c5b3e4d182a060272f60e7ceb60001b600b557f6605f8e6f523fc8991d078dec5279f9e0681539c5b3e4d182a060272f60e7ceb60001b600c557f6605f8e6f523fc8991d078dec5279f9e0681539c5b3e4d182a060272f60e7ceb60001b600d557f6605f8e6f523fc8991d078dec5279f9e0681539c5b3e4d182a060272f60e7ceb60001b600e55668e1bc9bf040000600f5566d529ae9e86000060105567011c37937e0800006011556001601260006101000a81548167ffffffffffffffff021916908367ffffffffffffffff1602179055506005601260086101000a81548167ffffffffffffffff021916908367ffffffffffffffff1602179055506005601260106101000a81548167ffffffffffffffff021916908367ffffffffffffffff1602179055506000601260186101000a81548160ff0219169083151502179055506000601260196101000a81548160ff0219169083151502179055506014601355600060145560006015556040518060600160405280603581526020016200674e6035913960169080519060200190620001b692919062000785565b506040518060400160405280600581526020017f2e6a736f6e000000000000000000000000000000000000000000000000000000815250601790805190602001906200020492919062000785565b503480156200021257600080fd5b506040518060400160405280600981526020017f5472656b6b694e465400000000000000000000000000000000000000000000008152506040518060400160405280600681526020017f5472656b6b6900000000000000000000000000000000000000000000000000008152506200029f62000293620006b960201b60201c565b620006c160201b60201c565b8160019080519060200190620002b792919062000785565b508060029080519060200190620002d092919062000785565b5050506040518060400160405280601b81526020017f4572726f722030313a204e6f7420696e2077686974656c6973742e0000000000815250601e6000600160ff16815260200190815260200160002090805190602001906200033592919062000785565b506040518060400160405280601c81526020017f4572726f722030323a20457863656564206d617820737570706c792e00000000815250601e6000600260ff16815260200190815260200160002090805190602001906200039892919062000785565b506040518060600160405280602381526020016200682e60239139601e6000600360ff1681526020019081526020016000209080519060200190620003df92919062000785565b506040518060600160405280602b815260200162006803602b9139601e6000600460ff16815260200190815260200160002090805190602001906200042692919062000785565b506040518060400160405280601c81526020017f4572726f722030353a204e6f7420696e2073616c652073746167652e00000000815250601e6000600560ff16815260200190815260200160002090805190602001906200048992919062000785565b50604051806060016040528060318152602001620067d260319139601e6000600660ff1681526020019081526020016000209080519060200190620004d092919062000785565b506040518060600160405280602181526020016200685160219139601e6000600760ff16815260200190815260200160002090805190602001906200051792919062000785565b506040518060600160405280602581526020016200678360259139601e6000600860ff16815260200190815260200160002090805190602001906200055e92919062000785565b506040518060400160405280601f81526020017f4572726f722030393a204e6f7420656e6f7567682065746865722073656e7400815250601e6000600960ff1681526020019081526020016000209080519060200190620005c192919062000785565b506040518060600160405280602981526020016200672560299139601e6000600a60ff16815260200190815260200160002090805190602001906200060892919062000785565b506040518060400160405280601881526020017f4572726f722031313a204e6674206973207374616b696e670000000000000000815250601e6000600b60ff16815260200190815260200160002090805190602001906200066b92919062000785565b506040518060600160405280602a8152602001620067a8602a9139601e6000600c60ff1681526020019081526020016000209080519060200190620006b292919062000785565b506200089a565b600033905090565b60008060009054906101000a900473ffffffffffffffffffffffffffffffffffffffff169050816000806101000a81548173ffffffffffffffffffffffffffffffffffffffff021916908373ffffffffffffffffffffffffffffffffffffffff1602179055508173ffffffffffffffffffffffffffffffffffffffff168173ffffffffffffffffffffffffffffffffffffffff167f8be0079c531659141344cd1fd0a4f28419497f9722a3daafe3b4186f6b6457e060405160405180910390a35050565b828054620007939062000864565b90600052602060002090601f016020900481019282620007b7576000855562000803565b82601f10620007d257805160ff191683800117855562000803565b8280016001018555821562000803579182015b8281111562000802578251825591602001919060010190620007e5565b5b50905062000812919062000816565b5090565b5b808211156200083157600081600090555060010162000817565b5090565b7f4e487b7100000000000000000000000000000000000000000000000000000000600052602260045260246000fd5b600060028204905060018216806200087d57607f821691505b6020821081141562000894576200089362000835565b5b50919050565b615e7b80620008aa6000396000f3fe6080604052600436106103e75760003560e01c806373253e4c11610208578063c3b1968111610118578063e15822a7116100ab578063f09893811161007a578063f098938114610ea2578063f185976d14610edf578063f2fde38b14610f1c578063f8d08e8214610f45578063fd27f06c14610f70576103ee565b8063e15822a714610e09578063e985e9c514610e25578063ea50ac8214610e62578063ef20424a14610e79576103ee565b8063cdfe5c44116100e7578063cdfe5c4414610d5f578063d3e35f3814610d8a578063da3ef23f14610db5578063dc53fd9214610dde576103ee565b8063c3b1968114610c91578063c492e7a214610cba578063c668286214610cf7578063c87b56dd14610d22576103ee565b806394b37c1b1161019b5780639f4db8521161016a5780639f4db85214610bd2578063a22cb46514610bfd578063b5bfcfa814610c26578063b88d4fde14610c3d578063ba87306514610c66576103ee565b806394b37c1b14610b1857806395d89b4114610b555780639c7e706314610b805780639d51d9b714610ba9576103ee565b80638540015c116101d75780638540015c14610a7f57806388d15d5014610aa85780638da5cb5b14610ac4578063932c06d614610aef576103ee565b806373253e4c146109d257806373ad468a146109ee5780637981ed9314610a1957806379b4178414610a42576103ee565b80632f971029116103035780634f6ccce7116102965780636352211e116102655780636352211e146108eb5780636c0360eb146109285780636d474e961461095357806370a082311461097e578063715018a6146109bb576103ee565b80634f6ccce71461081f57806355f804b31461085c5780635ecf8a8014610885578063633221e8146108c2576103ee565b806342842e0e116102d257806342842e0e1461077757806346a49e23146107a0578063471a4294146107c95780634aaca86d146107f4576103ee565b80632f971029146106cd578063325a157d146106f657806332cb6b0c1461072157806337c36b141461074c576103ee565b8063167593f11161037b57806323b872dd1161034a57806323b872dd1461062057806325b76cdc146106495780632db11544146106745780632f745c5914610690576103ee565b8063167593f11461056457806318160ddd1461058d57806319d02fab146105b857806322ab974c146105e3576103ee565b8063081812fc116103b7578063081812fc146104aa578063088c4870146104e7578063095ea7b3146105125780630f893da91461053b576103ee565b806222e8c1146103f057806301ffc9a7146104195780630630ceb31461045657806306fdde031461047f576103ee565b366103ee57005b005b3480156103fc57600080fd5b5061041760048036038101906104129190614703565b610f99565b005b34801561042557600080fd5b50610440600480360381019061043b9190614788565b610fab565b60405161044d91906147d0565b60405180910390f35b34801561046257600080fd5b5061047d60048036038101906104789190614703565b611025565b005b34801561048b57600080fd5b50610494611037565b6040516104a19190614884565b60405180910390f35b3480156104b657600080fd5b506104d160048036038101906104cc91906148dc565b6110c9565b6040516104de919061494a565b60405180910390f35b3480156104f357600080fd5b506104fc61110f565b6040516105099190614974565b60405180910390f35b34801561051e57600080fd5b50610539600480360381019061053491906149bb565b611115565b005b34801561054757600080fd5b50610562600480360381019061055d9190614a27565b6111ca565b005b34801561057057600080fd5b5061058b60048036038101906105869190614aa7565b611201565b005b34801561059957600080fd5b506105a261121d565b6040516105af9190614974565b60405180910390f35b3480156105c457600080fd5b506105cd61122a565b6040516105da91906147d0565b60405180910390f35b3480156105ef57600080fd5b5061060a600480360381019061060591906148dc565b61123d565b6040516106179190614ae3565b60405180910390f35b34801561062c57600080fd5b5061064760048036038101906106429190614afe565b611264565b005b34801561065557600080fd5b5061065e6112c4565b60405161066b9190614b60565b60405180910390f35b61068e600480360381019061068991906148dc565b6112ca565b005b34801561069c57600080fd5b506106b760048036038101906106b291906149bb565b611520565b6040516106c49190614974565b60405180910390f35b3480156106d957600080fd5b506106f460048036038101906106ef9190614b7b565b6115c5565b005b34801561070257600080fd5b5061070b611617565b6040516107189190614b60565b60405180910390f35b34801561072d57600080fd5b5061073661161d565b6040516107439190614974565b60405180910390f35b34801561075857600080fd5b50610761611623565b60405161076e9190614b60565b60405180910390f35b34801561078357600080fd5b5061079e60048036038101906107999190614afe565b611629565b005b3480156107ac57600080fd5b506107c760048036038101906107c29190614c0d565b611649565b005b3480156107d557600080fd5b506107de6117d5565b6040516107eb91906147d0565b60405180910390f35b34801561080057600080fd5b506108096117e8565b6040516108169190614974565b60405180910390f35b34801561082b57600080fd5b50610846600480360381019061084191906148dc565b6117ee565b6040516108539190614974565b60405180910390f35b34801561086857600080fd5b50610883600480360381019061087e9190614db1565b61185f565b005b34801561089157600080fd5b506108ac60048036038101906108a79190614b7b565b611881565b6040516108b99190614974565b60405180910390f35b3480156108ce57600080fd5b506108e960048036038101906108e49190614dfa565b611899565b005b3480156108f757600080fd5b50610912600480360381019061090d91906148dc565b6118df565b60405161091f919061494a565b60405180910390f35b34801561093457600080fd5b5061093d611966565b60405161094a9190614884565b60405180910390f35b34801561095f57600080fd5b506109686119f4565b6040516109759190614b60565b60405180910390f35b34801561098a57600080fd5b506109a560048036038101906109a09190614b7b565b6119fa565b6040516109b29190614974565b60405180910390f35b3480156109c757600080fd5b506109d0611ab2565b005b6109ec60048036038101906109e79190614e3a565b611ac6565b005b3480156109fa57600080fd5b50610a03611f82565b604051610a109190614974565b60405180910390f35b348015610a2557600080fd5b50610a406004803603810190610a3b9190614aa7565b611f88565b005b348015610a4e57600080fd5b50610a696004803603810190610a649190614b7b565b611fbc565b604051610a7691906147d0565b60405180910390f35b348015610a8b57600080fd5b50610aa66004803603810190610aa19190614703565b611fdc565b005b610ac26004803603810190610abd9190614e9a565b611fee565b005b348015610ad057600080fd5b50610ad961232c565b604051610ae6919061494a565b60405180910390f35b348015610afb57600080fd5b50610b166004803603810190610b1191906148dc565b612355565b005b348015610b2457600080fd5b50610b3f6004803603810190610b3a9190614b7b565b612367565b604051610b4c9190614974565b60405180910390f35b348015610b6157600080fd5b50610b6a61237f565b604051610b779190614884565b60405180910390f35b348015610b8c57600080fd5b50610ba76004803603810190610ba29190614ee7565b612411565b005b348015610bb557600080fd5b50610bd06004803603810190610bcb91906148dc565b612474565b005b348015610bde57600080fd5b50610be7612486565b604051610bf49190614ae3565b60405180910390f35b348015610c0957600080fd5b50610c246004803603810190610c1f9190614ee7565b6124a0565b005b348015610c3257600080fd5b50610c3b612555565b005b348015610c4957600080fd5b50610c646004803603810190610c5f9190614fc8565b612589565b005b348015610c7257600080fd5b50610c7b6125eb565b604051610c889190614974565b60405180910390f35b348015610c9d57600080fd5b50610cb86004803603810190610cb39190614aa7565b6125f1565b005b348015610cc657600080fd5b50610ce16004803603810190610cdc9190614b7b565b612625565b604051610cee9190614974565b60405180910390f35b348015610d0357600080fd5b50610d0c61263d565b604051610d199190614884565b60405180910390f35b348015610d2e57600080fd5b50610d496004803603810190610d4491906148dc565b6126cb565b604051610d569190614884565b60405180910390f35b348015610d6b57600080fd5b50610d74612770565b604051610d819190614ae3565b60405180910390f35b348015610d9657600080fd5b50610d9f61278a565b604051610dac9190614ae3565b60405180910390f35b348015610dc157600080fd5b50610ddc6004803603810190610dd79190614db1565b6127a4565b005b348015610dea57600080fd5b50610df36127c6565b604051610e009190614974565b60405180910390f35b610e236004803603810190610e1e9190614e3a565b6127cc565b005b348015610e3157600080fd5b50610e4c6004803603810190610e47919061504b565b612c88565b604051610e5991906147d0565b60405180910390f35b348015610e6e57600080fd5b50610e77612d1c565b005b348015610e8557600080fd5b50610ea06004803603810190610e9b9190614703565b612d50565b005b348015610eae57600080fd5b50610ec96004803603810190610ec4919061508b565b612d62565b604051610ed691906147d0565b60405180910390f35b348015610eeb57600080fd5b50610f066004803603810190610f0191906148dc565b612e29565b604051610f1391906147d0565b60405180910390f35b348015610f2857600080fd5b50610f436004803603810190610f3e9190614b7b565b612e49565b005b348015610f5157600080fd5b50610f5a612ecd565b604051610f679190614974565b60405180910390f35b348015610f7c57600080fd5b50610f976004803603810190610f929190614aa7565b612ed3565b005b610fa1612f07565b80600d8190555050565b60007f780e9d63000000000000000000000000000000000000000000000000000000007bffffffffffffffffffffffffffffffffffffffffffffffffffffffff1916827bffffffffffffffffffffffffffffffffffffffffffffffffffffffff1916148061101e575061101d82612f85565b5b9050919050565b61102d612f07565b80600e8190555050565b6060600180546110469061511a565b80601f01602080910402602001604051908101604052809291908181526020018280546110729061511a565b80156110bf5780601f10611094576101008083540402835291602001916110bf565b820191906000526020600020905b8154815290600101906020018083116110a257829003601f168201915b5050505050905090565b60006110d482613067565b6005600083815260200190815260200160002060009054906101000a900473ffffffffffffffffffffffffffffffffffffffff169050919050565b60105481565b601860008373ffffffffffffffffffffffffffffffffffffffff1673ffffffffffffffffffffffffffffffffffffffff16815260200190815260200160002060009054906101000a900460ff1615601e6000600c60ff168152602001908152602001600020906111bb576040517f08c379a00000000000000000000000000000000000000000000000000000000081526004016111b291906151e1565b60405180910390fd5b506111c682826130b2565b5050565b6111d2612f07565b80601a600084815260200190815260200160002060006101000a81548160ff0219169083151502179055505050565b611209612f07565b8067ffffffffffffffff1660148190555050565b6000600980549050905090565b601260199054906101000a900460ff1681565b60196020528060005260406000206000915054906101000a900467ffffffffffffffff1681565b61127561126f6131ca565b826131d2565b6112b4576040517f08c379a00000000000000000000000000000000000000000000000000000000081526004016112ab90615275565b60405180910390fd5b6112bf838383613267565b505050565b600d5481565b60011515601260189054906101000a900460ff16151514601e6000600460ff16815260200190815260200160002090611339576040517f08c379a000000000000000000000000000000000000000000000000000000000815260040161133091906151e1565b60405180910390fd5b50600460145414601e6000600560ff16815260200190815260200160002090611398576040517f08c379a000000000000000000000000000000000000000000000000000000000815260040161138f91906151e1565b60405180910390fd5b50346113af6011548361355d90919063ffffffff16565b1115601e6000600960ff16815260200190815260200160002090611409576040517f08c379a000000000000000000000000000000000000000000000000000000000815260040161140091906151e1565b60405180910390fd5b506127108161141661121d565b61142091906152c4565b1115601e6000600260ff1681526020019081526020016000209061147a576040517f08c379a000000000000000000000000000000000000000000000000000000000815260040161147191906151e1565b60405180910390fd5b50601354611487336119fa565b8261149291906152c4565b1115601e6000600360ff168152602001908152602001600020906114ec576040517f08c379a00000000000000000000000000000000000000000000000000000000081526004016114e391906151e1565b60405180910390fd5b5060005b8181101561151c576115093361150461121d565b613573565b80806115149061531a565b9150506114f0565b5050565b600061152b836119fa565b821061156c576040517f08c379a0000000000000000000000000000000000000000000000000000000008152600401611563906153d5565b60405180910390fd5b600760008473ffffffffffffffffffffffffffffffffffffffff1673ffffffffffffffffffffffffffffffffffffffff168152602001908152602001600020600083815260200190815260200160002054905092915050565b6115cd612f07565b8073ffffffffffffffffffffffffffffffffffffffff166108fc479081150290604051600060405180830381858888f19350505050158015611613573d6000803e3d6000fd5b5050565b600b5481565b61271081565b600c5481565b61164483838360405180602001604052806000815250612589565b505050565b611651612f07565b60011515611660858585612d62565b151514601e6000600160ff168152602001908152602001600020906116bb576040517f08c379a00000000000000000000000000000000000000000000000000000000081526004016116b291906151e1565b60405180910390fd5b50612710816116c861121d565b6116d291906152c4565b1115601e6000600260ff1681526020019081526020016000209061172c576040517f08c379a000000000000000000000000000000000000000000000000000000000815260040161172391906151e1565b60405180910390fd5b506013548161173a866119fa565b61174491906152c4565b1115601e6000600360ff1681526020019081526020016000209061179e576040517f08c379a000000000000000000000000000000000000000000000000000000000815260040161179591906151e1565b60405180910390fd5b5060005b818110156117ce576117bb856117b661121d565b613573565b80806117c69061531a565b9150506117a2565b5050505050565b601260189054906101000a900460ff1681565b60145481565b60006117f861121d565b8210611839576040517f08c379a000000000000000000000000000000000000000000000000000000000815260040161183090615467565b60405180910390fd5b6009828154811061184d5761184c615487565b5b90600052602060002001549050919050565b611867612f07565b806016908051906020019061187d929190614616565b5050565b601b6020528060005260406000206000915090505481565b6118a1612f07565b806019600084815260200190815260200160002060006101000a81548167ffffffffffffffff021916908367ffffffffffffffff1602179055505050565b6000806118eb83613591565b9050600073ffffffffffffffffffffffffffffffffffffffff168173ffffffffffffffffffffffffffffffffffffffff16141561195d576040517f08c379a000000000000000000000000000000000000000000000000000000000815260040161195490615502565b60405180910390fd5b80915050919050565b601680546119739061511a565b80601f016020809104026020016040519081016040528092919081815260200182805461199f9061511a565b80156119ec5780601f106119c1576101008083540402835291602001916119ec565b820191906000526020600020905b8154815290600101906020018083116119cf57829003601f168201915b505050505081565b600e5481565b60008073ffffffffffffffffffffffffffffffffffffffff168273ffffffffffffffffffffffffffffffffffffffff161415611a6b576040517f08c379a0000000000000000000000000000000000000000000000000000000008152600401611a6290615594565b60405180910390fd5b600460008373ffffffffffffffffffffffffffffffffffffffff1673ffffffffffffffffffffffffffffffffffffffff168152602001908152602001600020549050919050565b611aba612f07565b611ac460006135ce565b565b60011515601260189054906101000a900460ff16151514601e6000600460ff16815260200190815260200160002090611b35576040517f08c379a0000000000000000000000000000000000000000000000000000000008152600401611b2c91906151e1565b60405180910390fd5b50600260145414601e6000600560ff16815260200190815260200160002090611b94576040517f08c379a0000000000000000000000000000000000000000000000000000000008152600401611b8b91906151e1565b60405180910390fd5b50600060155411601e6000600760ff16815260200190815260200160002090611bf3576040517f08c379a0000000000000000000000000000000000000000000000000000000008152600401611bea91906151e1565b60405180910390fd5b50600083601554611c0491906155b4565b1015601e6000600860ff16815260200190815260200160002090611c5e576040517f08c379a0000000000000000000000000000000000000000000000000000000008152600401611c5591906151e1565b60405180910390fd5b5060011515611c6e338484612d62565b151514601e6000600160ff16815260200190815260200160002090611cc9576040517f08c379a0000000000000000000000000000000000000000000000000000000008152600401611cc091906151e1565b60405180910390fd5b5034611ce0600f548561355d90919063ffffffff16565b1115601e6000600960ff16815260200190815260200160002090611d3a576040517f08c379a0000000000000000000000000000000000000000000000000000000008152600401611d3191906151e1565b60405180910390fd5b5061271083611d4761121d565b611d5191906152c4565b1115601e6000600260ff16815260200190815260200160002090611dab576040517f08c379a0000000000000000000000000000000000000000000000000000000008152600401611da291906151e1565b60405180910390fd5b5060135483611db9336119fa565b611dc391906152c4565b1115601e6000600360ff16815260200190815260200160002090611e1d576040517f08c379a0000000000000000000000000000000000000000000000000000000008152600401611e1491906151e1565b60405180910390fd5b506000601c60003373ffffffffffffffffffffffffffffffffffffffff1673ffffffffffffffffffffffffffffffffffffffff168152602001908152602001600020549050601260089054906101000a900467ffffffffffffffff1667ffffffffffffffff168482611e8f91906152c4565b10601e6000600660ff16815260200190815260200160002090611ee8576040517f08c379a0000000000000000000000000000000000000000000000000000000008152600401611edf91906151e1565b60405180910390fd5b508381611ef591906152c4565b601c60003373ffffffffffffffffffffffffffffffffffffffff1673ffffffffffffffffffffffffffffffffffffffff1681526020019081526020016000208190555083601554611f4691906155b4565b60158190555060005b84811015611f7b57611f6833611f6361121d565b613573565b8080611f739061531a565b915050611f4f565b5050505050565b60135481565b611f90612f07565b80601260106101000a81548167ffffffffffffffff021916908367ffffffffffffffff16021790555050565b60186020528060005260406000206000915054906101000a900460ff1681565b611fe4612f07565b80600b8190555050565b601260189054906101000a900460ff16601e6000600460ff16815260200190815260200160002090612056576040517f08c379a000000000000000000000000000000000000000000000000000000000815260040161204d91906151e1565b60405180910390fd5b50600160145414601e6000600560ff168152602001908152602001600020906120b5576040517f08c379a00000000000000000000000000000000000000000000000000000000081526004016120ac91906151e1565b60405180910390fd5b50600115156120c5338484612d62565b151514601e6000600160ff16815260200190815260200160002090612120576040517f08c379a000000000000000000000000000000000000000000000000000000000815260040161211791906151e1565b60405180910390fd5b50612710600161212e61121d565b61213891906152c4565b1115601e6000600260ff16815260200190815260200160002090612192576040517f08c379a000000000000000000000000000000000000000000000000000000000815260040161218991906151e1565b60405180910390fd5b5060135460016121a1336119fa565b6121ab91906152c4565b1115601e6000600360ff16815260200190815260200160002090612205576040517f08c379a00000000000000000000000000000000000000000000000000000000081526004016121fc91906151e1565b60405180910390fd5b506000601b60003373ffffffffffffffffffffffffffffffffffffffff1673ffffffffffffffffffffffffffffffffffffffff168152602001908152602001600020549050601260009054906101000a900467ffffffffffffffff1667ffffffffffffffff168110601e6000600660ff168152602001908152602001600020906122c5576040517f08c379a00000000000000000000000000000000000000000000000000000000081526004016122bc91906151e1565b60405180910390fd5b506001816122d391906152c4565b601b60003373ffffffffffffffffffffffffffffffffffffffff1673ffffffffffffffffffffffffffffffffffffffff168152602001908152602001600020819055506123273361232261121d565b613573565b505050565b60008060009054906101000a900473ffffffffffffffffffffffffffffffffffffffff16905090565b61235d612f07565b8060158190555050565b601c6020528060005260406000206000915090505481565b60606002805461238e9061511a565b80601f01602080910402602001604051908101604052809291908181526020018280546123ba9061511a565b80156124075780601f106123dc57610100808354040283529160200191612407565b820191906000526020600020905b8154815290600101906020018083116123ea57829003601f168201915b5050505050905090565b612419612f07565b80601860008473ffffffffffffffffffffffffffffffffffffffff1673ffffffffffffffffffffffffffffffffffffffff16815260200190815260200160002060006101000a81548160ff0219169083151502179055505050565b61247c612f07565b8060138190555050565b601260089054906101000a900467ffffffffffffffff1681565b601860008373ffffffffffffffffffffffffffffffffffffffff1673ffffffffffffffffffffffffffffffffffffffff16815260200190815260200160002060009054906101000a900460ff1615601e6000600c60ff16815260200190815260200160002090612546576040517f08c379a000000000000000000000000000000000000000000000000000000000815260040161253d91906151e1565b60405180910390fd5b506125518282613692565b5050565b61255d612f07565b601260189054906101000a900460ff1615601260186101000a81548160ff021916908315150217905550565b61259a6125946131ca565b836131d2565b6125d9576040517f08c379a00000000000000000000000000000000000000000000000000000000081526004016125d090615275565b60405180910390fd5b6125e5848484846136a8565b50505050565b60155481565b6125f9612f07565b80601260086101000a81548167ffffffffffffffff021916908367ffffffffffffffff16021790555050565b601d6020528060005260406000206000915090505481565b6017805461264a9061511a565b80601f01602080910402602001604051908101604052809291908181526020018280546126769061511a565b80156126c35780601f10612698576101008083540402835291602001916126c3565b820191906000526020600020905b8154815290600101906020018083116126a657829003601f168201915b505050505081565b60606126d682613704565b601e6000600a60ff1681526020019081526020016000209061272e576040517f08c379a000000000000000000000000000000000000000000000000000000000815260040161272591906151e1565b60405180910390fd5b506000612739613745565b905080612745846137d7565b6017604051602001612759939291906156ef565b604051602081830303815290604052915050919050565b601260109054906101000a900467ffffffffffffffff1681565b601260009054906101000a900467ffffffffffffffff1681565b6127ac612f07565b80601790805190602001906127c2929190614616565b5050565b60115481565b60011515601260189054906101000a900460ff16151514601e6000600460ff1681526020019081526020016000209061283b576040517f08c379a000000000000000000000000000000000000000000000000000000000815260040161283291906151e1565b60405180910390fd5b50600360145414601e6000600560ff1681526020019081526020016000209061289a576040517f08c379a000000000000000000000000000000000000000000000000000000000815260040161289191906151e1565b60405180910390fd5b50600060155411601e6000600760ff168152602001908152602001600020906128f9576040517f08c379a00000000000000000000000000000000000000000000000000000000081526004016128f091906151e1565b60405180910390fd5b5060008360155461290a91906155b4565b1015601e6000600860ff16815260200190815260200160002090612964576040517f08c379a000000000000000000000000000000000000000000000000000000000815260040161295b91906151e1565b60405180910390fd5b5060011515612974338484612d62565b151514601e6000600160ff168152602001908152602001600020906129cf576040517f08c379a00000000000000000000000000000000000000000000000000000000081526004016129c691906151e1565b60405180910390fd5b50346129e66010548561355d90919063ffffffff16565b1115601e6000600960ff16815260200190815260200160002090612a40576040517f08c379a0000000000000000000000000000000000000000000000000000000008152600401612a3791906151e1565b60405180910390fd5b5061271083612a4d61121d565b612a5791906152c4565b1115601e6000600260ff16815260200190815260200160002090612ab1576040517f08c379a0000000000000000000000000000000000000000000000000000000008152600401612aa891906151e1565b60405180910390fd5b5060135483612abf336119fa565b612ac991906152c4565b1115601e6000600360ff16815260200190815260200160002090612b23576040517f08c379a0000000000000000000000000000000000000000000000000000000008152600401612b1a91906151e1565b60405180910390fd5b506000601d60003373ffffffffffffffffffffffffffffffffffffffff1673ffffffffffffffffffffffffffffffffffffffff168152602001908152602001600020549050601260109054906101000a900467ffffffffffffffff1667ffffffffffffffff168482612b9591906152c4565b10601e6000600660ff16815260200190815260200160002090612bee576040517f08c379a0000000000000000000000000000000000000000000000000000000008152600401612be591906151e1565b60405180910390fd5b508381612bfb91906152c4565b601d60003373ffffffffffffffffffffffffffffffffffffffff1673ffffffffffffffffffffffffffffffffffffffff1681526020019081526020016000208190555083601554612c4c91906155b4565b60158190555060005b84811015612c8157612c6e33612c6961121d565b613573565b8080612c799061531a565b915050612c55565b5050505050565b6000600660008473ffffffffffffffffffffffffffffffffffffffff1673ffffffffffffffffffffffffffffffffffffffff16815260200190815260200160002060008373ffffffffffffffffffffffffffffffffffffffff1673ffffffffffffffffffffffffffffffffffffffff16815260200190815260200160002060009054906101000a900460ff16905092915050565b612d24612f07565b601260199054906101000a900460ff1615601260196101000a81548160ff021916908315150217905550565b612d58612f07565b80600c8190555050565b60008084604051602001612d769190615773565b6040516020818303038152906040528051906020012090506000600b54905060016014541415612daa57600c549050612dd2565b60026014541415612dbf57600d549050612dd1565b60036014541415612dd057600e5490505b5b5b612e1e858580806020026020016040519081016040528093929190818152602001838360200280828437600081840152601f19601f8201169050808301925050505050505082846138af565b925050509392505050565b601a6020528060005260406000206000915054906101000a900460ff1681565b612e51612f07565b600073ffffffffffffffffffffffffffffffffffffffff168173ffffffffffffffffffffffffffffffffffffffff161415612ec1576040517f08c379a0000000000000000000000000000000000000000000000000000000008152600401612eb890615800565b60405180910390fd5b612eca816135ce565b50565b600f5481565b612edb612f07565b80601260006101000a81548167ffffffffffffffff021916908367ffffffffffffffff16021790555050565b612f0f6131ca565b73ffffffffffffffffffffffffffffffffffffffff16612f2d61232c565b73ffffffffffffffffffffffffffffffffffffffff1614612f83576040517f08c379a0000000000000000000000000000000000000000000000000000000008152600401612f7a9061586c565b60405180910390fd5b565b60007f80ac58cd000000000000000000000000000000000000000000000000000000007bffffffffffffffffffffffffffffffffffffffffffffffffffffffff1916827bffffffffffffffffffffffffffffffffffffffffffffffffffffffff1916148061305057507f5b5e139f000000000000000000000000000000000000000000000000000000007bffffffffffffffffffffffffffffffffffffffffffffffffffffffff1916827bffffffffffffffffffffffffffffffffffffffffffffffffffffffff1916145b80613060575061305f826138c6565b5b9050919050565b61307081613704565b6130af576040517f08c379a00000000000000000000000000000000000000000000000000000000081526004016130a690615502565b60405180910390fd5b50565b60006130bd826118df565b90508073ffffffffffffffffffffffffffffffffffffffff168373ffffffffffffffffffffffffffffffffffffffff16141561312e576040517f08c379a0000000000000000000000000000000000000000000000000000000008152600401613125906158fe565b60405180910390fd5b8073ffffffffffffffffffffffffffffffffffffffff1661314d6131ca565b73ffffffffffffffffffffffffffffffffffffffff16148061317c575061317b816131766131ca565b612c88565b5b6131bb576040517f08c379a00000000000000000000000000000000000000000000000000000000081526004016131b290615990565b60405180910390fd5b6131c58383613930565b505050565b600033905090565b6000806131de836118df565b90508073ffffffffffffffffffffffffffffffffffffffff168473ffffffffffffffffffffffffffffffffffffffff161480613220575061321f8185612c88565b5b8061325e57508373ffffffffffffffffffffffffffffffffffffffff16613246846110c9565b73ffffffffffffffffffffffffffffffffffffffff16145b91505092915050565b8273ffffffffffffffffffffffffffffffffffffffff16613287826118df565b73ffffffffffffffffffffffffffffffffffffffff16146132dd576040517f08c379a00000000000000000000000000000000000000000000000000000000081526004016132d490615a22565b60405180910390fd5b600073ffffffffffffffffffffffffffffffffffffffff168273ffffffffffffffffffffffffffffffffffffffff16141561334d576040517f08c379a000000000000000000000000000000000000000000000000000000000815260040161334490615ab4565b60405180910390fd5b6133588383836139e9565b8273ffffffffffffffffffffffffffffffffffffffff16613378826118df565b73ffffffffffffffffffffffffffffffffffffffff16146133ce576040517f08c379a00000000000000000000000000000000000000000000000000000000081526004016133c590615a22565b60405180910390fd5b6005600082815260200190815260200160002060006101000a81549073ffffffffffffffffffffffffffffffffffffffff02191690556001600460008573ffffffffffffffffffffffffffffffffffffffff1673ffffffffffffffffffffffffffffffffffffffff168152602001908152602001600020600082825403925050819055506001600460008473ffffffffffffffffffffffffffffffffffffffff1673ffffffffffffffffffffffffffffffffffffffff16815260200190815260200160002060008282540192505081905550816003600083815260200190815260200160002060006101000a81548173ffffffffffffffffffffffffffffffffffffffff021916908373ffffffffffffffffffffffffffffffffffffffff160217905550808273ffffffffffffffffffffffffffffffffffffffff168473ffffffffffffffffffffffffffffffffffffffff167fddf252ad1be2c89b69c2b068fc378daa952ba7f163c4a11628f55a4df523b3ef60405160405180910390a4613558838383613a7a565b505050565b6000818361356b9190615ad4565b905092915050565b61358d828260405180602001604052806000815250613a7f565b5050565b60006003600083815260200190815260200160002060009054906101000a900473ffffffffffffffffffffffffffffffffffffffff169050919050565b60008060009054906101000a900473ffffffffffffffffffffffffffffffffffffffff169050816000806101000a81548173ffffffffffffffffffffffffffffffffffffffff021916908373ffffffffffffffffffffffffffffffffffffffff1602179055508173ffffffffffffffffffffffffffffffffffffffff168173ffffffffffffffffffffffffffffffffffffffff167f8be0079c531659141344cd1fd0a4f28419497f9722a3daafe3b4186f6b6457e060405160405180910390a35050565b6136a461369d6131ca565b8383613ada565b5050565b6136b3848484613267565b6136bf84848484613c47565b6136fe576040517f08c379a00000000000000000000000000000000000000000000000000000000081526004016136f590615ba0565b60405180910390fd5b50505050565b60008073ffffffffffffffffffffffffffffffffffffffff1661372683613591565b73ffffffffffffffffffffffffffffffffffffffff1614159050919050565b6060601680546137549061511a565b80601f01602080910402602001604051908101604052809291908181526020018280546137809061511a565b80156137cd5780601f106137a2576101008083540402835291602001916137cd565b820191906000526020600020905b8154815290600101906020018083116137b057829003601f168201915b5050505050905090565b6060600060016137e684613dcf565b01905060008167ffffffffffffffff81111561380557613804614c86565b5b6040519080825280601f01601f1916602001820160405280156138375781602001600182028036833780820191505090505b509050600082602001820190505b6001156138a4578080600190039150507f3031323334353637383961626364656600000000000000000000000000000000600a86061a8153600a858161388e5761388d615bc0565b5b049450600085141561389f576138a4565b613845565b819350505050919050565b6000826138bc8584613f22565b1490509392505050565b60007f01ffc9a7000000000000000000000000000000000000000000000000000000007bffffffffffffffffffffffffffffffffffffffffffffffffffffffff1916827bffffffffffffffffffffffffffffffffffffffffffffffffffffffff1916149050919050565b816005600083815260200190815260200160002060006101000a81548173ffffffffffffffffffffffffffffffffffffffff021916908373ffffffffffffffffffffffffffffffffffffffff160217905550808273ffffffffffffffffffffffffffffffffffffffff166139a3836118df565b73ffffffffffffffffffffffffffffffffffffffff167f8c5be1e5ebec7d5bd14f71427d1e84f3dd0314c0f7b2291e5b200ac8c7c3b92560405160405180910390a45050565b60001515601a600083815260200190815260200160002060009054906101000a900460ff16151514601e6000600b60ff16815260200190815260200160002090613a69576040517f08c379a0000000000000000000000000000000000000000000000000000000008152600401613a6091906151e1565b60405180910390fd5b50613a75838383613f78565b505050565b505050565b613a89838361408c565b613a966000848484613c47565b613ad5576040517f08c379a0000000000000000000000000000000000000000000000000000000008152600401613acc90615ba0565b60405180910390fd5b505050565b8173ffffffffffffffffffffffffffffffffffffffff168373ffffffffffffffffffffffffffffffffffffffff161415613b49576040517f08c379a0000000000000000000000000000000000000000000000000000000008152600401613b4090615c3b565b60405180910390fd5b80600660008573ffffffffffffffffffffffffffffffffffffffff1673ffffffffffffffffffffffffffffffffffffffff16815260200190815260200160002060008473ffffffffffffffffffffffffffffffffffffffff1673ffffffffffffffffffffffffffffffffffffffff16815260200190815260200160002060006101000a81548160ff0219169083151502179055508173ffffffffffffffffffffffffffffffffffffffff168373ffffffffffffffffffffffffffffffffffffffff167f17307eab39ab6107e8899845ad3d59bd9653f200f220920489ca2b5937696c3183604051613c3a91906147d0565b60405180910390a3505050565b6000613c688473ffffffffffffffffffffffffffffffffffffffff166142a6565b15613dc2578373ffffffffffffffffffffffffffffffffffffffff1663150b7a02613c916131ca565b8786866040518563ffffffff1660e01b8152600401613cb39493929190615cb0565b6020604051808303816000875af1925050508015613cef57506040513d601f19601f82011682018060405250810190613cec9190615d11565b60015b613d72573d8060008114613d1f576040519150601f19603f3d011682016040523d82523d6000602084013e613d24565b606091505b50600081511415613d6a576040517f08c379a0000000000000000000000000000000000000000000000000000000008152600401613d6190615ba0565b60405180910390fd5b805181602001fd5b63150b7a0260e01b7bffffffffffffffffffffffffffffffffffffffffffffffffffffffff1916817bffffffffffffffffffffffffffffffffffffffffffffffffffffffff191614915050613dc7565b600190505b949350505050565b600080600090507a184f03e93ff9f4daa797ed6e38ed64bf6a1f0100000000000000008310613e2d577a184f03e93ff9f4daa797ed6e38ed64bf6a1f0100000000000000008381613e2357613e22615bc0565b5b0492506040810190505b6d04ee2d6d415b85acef81000000008310613e6a576d04ee2d6d415b85acef81000000008381613e6057613e5f615bc0565b5b0492506020810190505b662386f26fc100008310613e9957662386f26fc100008381613e8f57613e8e615bc0565b5b0492506010810190505b6305f5e1008310613ec2576305f5e1008381613eb857613eb7615bc0565b5b0492506008810190505b6127108310613ee7576127108381613edd57613edc615bc0565b5b0492506004810190505b60648310613f0a5760648381613f0057613eff615bc0565b5b0492506002810190505b600a8310613f19576001810190505b80915050919050565b60008082905060005b8451811015613f6d57613f5882868381518110613f4b57613f4a615487565b5b60200260200101516142c9565b91508080613f659061531a565b915050613f2b565b508091505092915050565b613f838383836142f4565b600073ffffffffffffffffffffffffffffffffffffffff168373ffffffffffffffffffffffffffffffffffffffff161415613fc657613fc1816142f9565b614005565b8173ffffffffffffffffffffffffffffffffffffffff168373ffffffffffffffffffffffffffffffffffffffff1614614004576140038382614342565b5b5b600073ffffffffffffffffffffffffffffffffffffffff168273ffffffffffffffffffffffffffffffffffffffff16141561404857614043816144af565b614087565b8273ffffffffffffffffffffffffffffffffffffffff168273ffffffffffffffffffffffffffffffffffffffff1614614086576140858282614580565b5b5b505050565b600073ffffffffffffffffffffffffffffffffffffffff168273ffffffffffffffffffffffffffffffffffffffff1614156140fc576040517f08c379a00000000000000000000000000000000000000000000000000000000081526004016140f390615d8a565b60405180910390fd5b61410581613704565b15614145576040517f08c379a000000000000000000000000000000000000000000000000000000000815260040161413c90615df6565b60405180910390fd5b614151600083836139e9565b61415a81613704565b1561419a576040517f08c379a000000000000000000000000000000000000000000000000000000000815260040161419190615df6565b60405180910390fd5b6001600460008473ffffffffffffffffffffffffffffffffffffffff1673ffffffffffffffffffffffffffffffffffffffff16815260200190815260200160002060008282540192505081905550816003600083815260200190815260200160002060006101000a81548173ffffffffffffffffffffffffffffffffffffffff021916908373ffffffffffffffffffffffffffffffffffffffff160217905550808273ffffffffffffffffffffffffffffffffffffffff16600073ffffffffffffffffffffffffffffffffffffffff167fddf252ad1be2c89b69c2b068fc378daa952ba7f163c4a11628f55a4df523b3ef60405160405180910390a46142a260008383613a7a565b5050565b6000808273ffffffffffffffffffffffffffffffffffffffff163b119050919050565b60008183106142e1576142dc82846145ff565b6142ec565b6142eb83836145ff565b5b905092915050565b505050565b600980549050600a600083815260200190815260200160002081905550600981908060018154018082558091505060019003906000526020600020016000909190919091505550565b6000600161434f846119fa565b61435991906155b4565b905060006008600084815260200190815260200160002054905081811461443e576000600760008673ffffffffffffffffffffffffffffffffffffffff1673ffffffffffffffffffffffffffffffffffffffff168152602001908152602001600020600084815260200190815260200160002054905080600760008773ffffffffffffffffffffffffffffffffffffffff1673ffffffffffffffffffffffffffffffffffffffff168152602001908152602001600020600084815260200190815260200160002081905550816008600083815260200190815260200160002081905550505b6008600084815260200190815260200160002060009055600760008573ffffffffffffffffffffffffffffffffffffffff1673ffffffffffffffffffffffffffffffffffffffff16815260200190815260200160002060008381526020019081526020016000206000905550505050565b600060016009805490506144c391906155b4565b90506000600a60008481526020019081526020016000205490506000600983815481106144f3576144f2615487565b5b90600052602060002001549050806009838154811061451557614514615487565b5b906000526020600020018190555081600a600083815260200190815260200160002081905550600a600085815260200190815260200160002060009055600980548061456457614563615e16565b5b6001900381819060005260206000200160009055905550505050565b600061458b836119fa565b905081600760008573ffffffffffffffffffffffffffffffffffffffff1673ffffffffffffffffffffffffffffffffffffffff168152602001908152602001600020600083815260200190815260200160002081905550806008600084815260200190815260200160002081905550505050565b600082600052816020526040600020905092915050565b8280546146229061511a565b90600052602060002090601f016020900481019282614644576000855561468b565b82601f1061465d57805160ff191683800117855561468b565b8280016001018555821561468b579182015b8281111561468a57825182559160200191906001019061466f565b5b509050614698919061469c565b5090565b5b808211156146b557600081600090555060010161469d565b5090565b6000604051905090565b600080fd5b600080fd5b6000819050919050565b6146e0816146cd565b81146146eb57600080fd5b50565b6000813590506146fd816146d7565b92915050565b600060208284031215614719576147186146c3565b5b6000614727848285016146ee565b91505092915050565b60007fffffffff0000000000000000000000000000000000000000000000000000000082169050919050565b61476581614730565b811461477057600080fd5b50565b6000813590506147828161475c565b92915050565b60006020828403121561479e5761479d6146c3565b5b60006147ac84828501614773565b91505092915050565b60008115159050919050565b6147ca816147b5565b82525050565b60006020820190506147e560008301846147c1565b92915050565b600081519050919050565b600082825260208201905092915050565b60005b8381101561482557808201518184015260208101905061480a565b83811115614834576000848401525b50505050565b6000601f19601f8301169050919050565b6000614856826147eb565b61486081856147f6565b9350614870818560208601614807565b6148798161483a565b840191505092915050565b6000602082019050818103600083015261489e818461484b565b905092915050565b6000819050919050565b6148b9816148a6565b81146148c457600080fd5b50565b6000813590506148d6816148b0565b92915050565b6000602082840312156148f2576148f16146c3565b5b6000614900848285016148c7565b91505092915050565b600073ffffffffffffffffffffffffffffffffffffffff82169050919050565b600061493482614909565b9050919050565b61494481614929565b82525050565b600060208201905061495f600083018461493b565b92915050565b61496e816148a6565b82525050565b60006020820190506149896000830184614965565b92915050565b61499881614929565b81146149a357600080fd5b50565b6000813590506149b58161498f565b92915050565b600080604083850312156149d2576149d16146c3565b5b60006149e0858286016149a6565b92505060206149f1858286016148c7565b9150509250929050565b614a04816147b5565b8114614a0f57600080fd5b50565b600081359050614a21816149fb565b92915050565b60008060408385031215614a3e57614a3d6146c3565b5b6000614a4c858286016148c7565b9250506020614a5d85828601614a12565b9150509250929050565b600067ffffffffffffffff82169050919050565b614a8481614a67565b8114614a8f57600080fd5b50565b600081359050614aa181614a7b565b92915050565b600060208284031215614abd57614abc6146c3565b5b6000614acb84828501614a92565b91505092915050565b614add81614a67565b82525050565b6000602082019050614af86000830184614ad4565b92915050565b600080600060608486031215614b1757614b166146c3565b5b6000614b25868287016149a6565b9350506020614b36868287016149a6565b9250506040614b47868287016148c7565b9150509250925092565b614b5a816146cd565b82525050565b6000602082019050614b756000830184614b51565b92915050565b600060208284031215614b9157614b906146c3565b5b6000614b9f848285016149a6565b91505092915050565b600080fd5b600080fd5b600080fd5b60008083601f840112614bcd57614bcc614ba8565b5b8235905067ffffffffffffffff811115614bea57614be9614bad565b5b602083019150836020820283011115614c0657614c05614bb2565b5b9250929050565b60008060008060608587031215614c2757614c266146c3565b5b6000614c35878288016149a6565b945050602085013567ffffffffffffffff811115614c5657614c556146c8565b5b614c6287828801614bb7565b93509350506040614c75878288016148c7565b91505092959194509250565b600080fd5b7f4e487b7100000000000000000000000000000000000000000000000000000000600052604160045260246000fd5b614cbe8261483a565b810181811067ffffffffffffffff82111715614cdd57614cdc614c86565b5b80604052505050565b6000614cf06146b9565b9050614cfc8282614cb5565b919050565b600067ffffffffffffffff821115614d1c57614d1b614c86565b5b614d258261483a565b9050602081019050919050565b82818337600083830152505050565b6000614d54614d4f84614d01565b614ce6565b905082815260208101848484011115614d7057614d6f614c81565b5b614d7b848285614d32565b509392505050565b600082601f830112614d9857614d97614ba8565b5b8135614da8848260208601614d41565b91505092915050565b600060208284031215614dc757614dc66146c3565b5b600082013567ffffffffffffffff811115614de557614de46146c8565b5b614df184828501614d83565b91505092915050565b60008060408385031215614e1157614e106146c3565b5b6000614e1f858286016148c7565b9250506020614e3085828601614a92565b9150509250929050565b600080600060408486031215614e5357614e526146c3565b5b6000614e61868287016148c7565b935050602084013567ffffffffffffffff811115614e8257614e816146c8565b5b614e8e86828701614bb7565b92509250509250925092565b60008060208385031215614eb157614eb06146c3565b5b600083013567ffffffffffffffff811115614ecf57614ece6146c8565b5b614edb85828601614bb7565b92509250509250929050565b60008060408385031215614efe57614efd6146c3565b5b6000614f0c858286016149a6565b9250506020614f1d85828601614a12565b9150509250929050565b600067ffffffffffffffff821115614f4257614f41614c86565b5b614f4b8261483a565b9050602081019050919050565b6000614f6b614f6684614f27565b614ce6565b905082815260208101848484011115614f8757614f86614c81565b5b614f92848285614d32565b509392505050565b600082601f830112614faf57614fae614ba8565b5b8135614fbf848260208601614f58565b91505092915050565b60008060008060808587031215614fe257614fe16146c3565b5b6000614ff0878288016149a6565b9450506020615001878288016149a6565b9350506040615012878288016148c7565b925050606085013567ffffffffffffffff811115615033576150326146c8565b5b61503f87828801614f9a565b91505092959194509250565b60008060408385031215615062576150616146c3565b5b6000615070858286016149a6565b9250506020615081858286016149a6565b9150509250929050565b6000806000604084860312156150a4576150a36146c3565b5b60006150b2868287016149a6565b935050602084013567ffffffffffffffff8111156150d3576150d26146c8565b5b6150df86828701614bb7565b92509250509250925092565b7f4e487b7100000000000000000000000000000000000000000000000000000000600052602260045260246000fd5b6000600282049050600182168061513257607f821691505b60208210811415615146576151456150eb565b5b50919050565b60008190508160005260206000209050919050565b6000815461516e8161511a565b61517881866147f6565b9450600182166000811461519357600181146151a5576151d8565b60ff19831686526020860193506151d8565b6151ae8561514c565b60005b838110156151d0578154818901526001820191506020810190506151b1565b808801955050505b50505092915050565b600060208201905081810360008301526151fb8184615161565b905092915050565b7f4552433732313a2063616c6c6572206973206e6f7420746f6b656e206f776e6560008201527f72206f7220617070726f76656400000000000000000000000000000000000000602082015250565b600061525f602d836147f6565b915061526a82615203565b604082019050919050565b6000602082019050818103600083015261528e81615252565b9050919050565b7f4e487b7100000000000000000000000000000000000000000000000000000000600052601160045260246000fd5b60006152cf826148a6565b91506152da836148a6565b9250827fffffffffffffffffffffffffffffffffffffffffffffffffffffffffffffffff0382111561530f5761530e615295565b5b828201905092915050565b6000615325826148a6565b91507fffffffffffffffffffffffffffffffffffffffffffffffffffffffffffffffff82141561535857615357615295565b5b600182019050919050565b7f455243373231456e756d657261626c653a206f776e657220696e646578206f7560008201527f74206f6620626f756e6473000000000000000000000000000000000000000000602082015250565b60006153bf602b836147f6565b91506153ca82615363565b604082019050919050565b600060208201905081810360008301526153ee816153b2565b9050919050565b7f455243373231456e756d657261626c653a20676c6f62616c20696e646578206f60008201527f7574206f6620626f756e64730000000000000000000000000000000000000000602082015250565b6000615451602c836147f6565b915061545c826153f5565b604082019050919050565b6000602082019050818103600083015261548081615444565b9050919050565b7f4e487b7100000000000000000000000000000000000000000000000000000000600052603260045260246000fd5b7f4552433732313a20696e76616c696420746f6b656e2049440000000000000000600082015250565b60006154ec6018836147f6565b91506154f7826154b6565b602082019050919050565b6000602082019050818103600083015261551b816154df565b9050919050565b7f4552433732313a2061646472657373207a65726f206973206e6f74206120766160008201527f6c6964206f776e65720000000000000000000000000000000000000000000000602082015250565b600061557e6029836147f6565b915061558982615522565b604082019050919050565b600060208201905081810360008301526155ad81615571565b9050919050565b60006155bf826148a6565b91506155ca836148a6565b9250828210156155dd576155dc615295565b5b828203905092915050565b600081905092915050565b60006155fe826147eb565b61560881856155e8565b9350615618818560208601614807565b80840191505092915050565b7f2f00000000000000000000000000000000000000000000000000000000000000600082015250565b600061565a6001836155e8565b915061566582615624565b600182019050919050565b6000815461567d8161511a565b61568781866155e8565b945060018216600081146156a257600181146156b3576156e6565b60ff198316865281860193506156e6565b6156bc8561514c565b60005b838110156156de578154818901526001820191506020810190506156bf565b838801955050505b50505092915050565b60006156fb82866155f3565b91506157068261564d565b915061571282856155f3565b915061571e8284615670565b9150819050949350505050565b60008160601b9050919050565b60006157438261572b565b9050919050565b600061575582615738565b9050919050565b61576d61576882614929565b61574a565b82525050565b600061577f828461575c565b60148201915081905092915050565b7f4f776e61626c653a206e6577206f776e657220697320746865207a65726f206160008201527f6464726573730000000000000000000000000000000000000000000000000000602082015250565b60006157ea6026836147f6565b91506157f58261578e565b604082019050919050565b60006020820190508181036000830152615819816157dd565b9050919050565b7f4f776e61626c653a2063616c6c6572206973206e6f7420746865206f776e6572600082015250565b60006158566020836147f6565b915061586182615820565b602082019050919050565b6000602082019050818103600083015261588581615849565b9050919050565b7f4552433732313a20617070726f76616c20746f2063757272656e74206f776e6560008201527f7200000000000000000000000000000000000000000000000000000000000000602082015250565b60006158e86021836147f6565b91506158f38261588c565b604082019050919050565b60006020820190508181036000830152615917816158db565b9050919050565b7f4552433732313a20617070726f76652063616c6c6572206973206e6f7420746f60008201527f6b656e206f776e6572206f7220617070726f76656420666f7220616c6c000000602082015250565b600061597a603d836147f6565b91506159858261591e565b604082019050919050565b600060208201905081810360008301526159a98161596d565b9050919050565b7f4552433732313a207472616e736665722066726f6d20696e636f72726563742060008201527f6f776e6572000000000000000000000000000000000000000000000000000000602082015250565b6000615a0c6025836147f6565b9150615a17826159b0565b604082019050919050565b60006020820190508181036000830152615a3b816159ff565b9050919050565b7f4552433732313a207472616e7366657220746f20746865207a65726f2061646460008201527f7265737300000000000000000000000000000000000000000000000000000000602082015250565b6000615a9e6024836147f6565b9150615aa982615a42565b604082019050919050565b60006020820190508181036000830152615acd81615a91565b9050919050565b6000615adf826148a6565b9150615aea836148a6565b9250817fffffffffffffffffffffffffffffffffffffffffffffffffffffffffffffffff0483118215151615615b2357615b22615295565b5b828202905092915050565b7f4552433732313a207472616e7366657220746f206e6f6e20455243373231526560008201527f63656976657220696d706c656d656e7465720000000000000000000000000000602082015250565b6000615b8a6032836147f6565b9150615b9582615b2e565b604082019050919050565b60006020820190508181036000830152615bb981615b7d565b9050919050565b7f4e487b7100000000000000000000000000000000000000000000000000000000600052601260045260246000fd5b7f4552433732313a20617070726f766520746f2063616c6c657200000000000000600082015250565b6000615c256019836147f6565b9150615c3082615bef565b602082019050919050565b60006020820190508181036000830152615c5481615c18565b9050919050565b600081519050919050565b600082825260208201905092915050565b6000615c8282615c5b565b615c8c8185615c66565b9350615c9c818560208601614807565b615ca58161483a565b840191505092915050565b6000608082019050615cc5600083018761493b565b615cd2602083018661493b565b615cdf6040830185614965565b8181036060830152615cf18184615c77565b905095945050505050565b600081519050615d0b8161475c565b92915050565b600060208284031215615d2757615d266146c3565b5b6000615d3584828501615cfc565b91505092915050565b7f4552433732313a206d696e7420746f20746865207a65726f2061646472657373600082015250565b6000615d746020836147f6565b9150615d7f82615d3e565b602082019050919050565b60006020820190508181036000830152615da381615d67565b9050919050565b7f4552433732313a20746f6b656e20616c7265616479206d696e74656400000000600082015250565b6000615de0601c836147f6565b9150615deb82615daa565b602082019050919050565b60006020820190508181036000830152615e0f81615dd3565b9050919050565b7f4e487b7100000000000000000000000000000000000000000000000000000000600052603160045260246000fdfea264697066735822122091dc8cacddcf5b2fc486b71254ca5f063399a7137ea70248d9fcea91398d5b5264736f6c634300080a00334572726f722031303a2055524920717565727920666f72206e6f6e6578697374656e7420746f6b656e697066733a2f2f516d544b795369687352394252557a736657584b74334c654d436231425378704c516a6e644a4c6869456538706b4572726f722030383a2043757272656e7420626174636820697320646566696369656e742e4572726f722031323a20496e76616c6964206d61726b6574706c6163652c206e6f7420616c6c6f7765644572726f722030363a204578636565642063757272656e74206261746368206d696e74206e756d626572206c696d69742e4572726f722030343a2054686520616374697669747920686173206e6f742073746172746564207965742e4572726f722030333a20457863656564206d6178696d756d206f776e6572736869702e4572726f722030373a2043757272656e742062617463682073616c65206f75742e",
  "linkReferences": {},
  "deployedLinkReferences": {}
}